:1011E500553120202025342E3166005532202530FA
:1011F50032642D25303264005533202020202530DF
:0312050032640050
:101122000442000000000847FFFFFFFFFFFFFFFF30
:10113200C109032C173B370141170432000000009C
:0611420004220000000081
:0E12E00000007F237E337DB6DDFEDEFCDFFAEC
:0112EE0022DD
:10122B0012124D1212BDD2AF7B007A00792C121024
:10123B00101211971212E0120F2B120A9A120FB3FF
:02124B0080F52C
:03001B00020E02D0
:100E0200C0E0C0F0C083C082C0D075D000C000C0B6
:100E120001C002C003C004C005C006C007E54524E6
:100E220001F545E43544F544E43543F543E4354200
:100E3200F5420531E53170020530640A453070042F
:100E4200F530F531052AE52A700205296464452941
:100E52007004F529F52A0528E5287002052764643F
:100E620045277004F527F5287B007A007947AD46BF
:100E72001210A70546E54664087002F546AF4F1208
:100E820012D0D007D006D005D004D003D002D001B2
:0D0E9200D000D0D0D082D083D0F0D0E0329C
:100F2B00E53145306003020FB2F530753101120C1B
:100F3B00FB8F26E52F65265526F52B85262F24F3CB
:100F4B00600F0470210540E54064037019F5408083
:100F5B0015A20AB3920AE4F580E5A0541F44A0F54C
:100F6B00A053A01FC20BAF407E00EF64027021E5BF
:100F7B002B24EF60100470180541E5416464701078
:100F8B00754163800B1541E5416409700375410A96
:100F9B00EF64014E7011AF2FFEEF64117003D20C92
:080FAB0022EF4E7002C20C227D
:100A9A00E52A45296003020BE2F529752A0112119C
:100AAA0097AC06AD07E41201C9E4FBFA79807841F4
:100ABA001201278F538E528D518C507B007A007908
:100ACA002C121062E54070177557FF755811755949
:100ADA00E585535D85525C85515B85505A804CE5AE
:100AEA004064017032200C167557FF7558117559FC
:100AFA00F0F55A852C5BF55C852D5DFB802E7557CC
:100B0A00FF7558117559F0755A00852D5B755C0093
:100B1A00852E5D7B008015E540640270167557FFCF
:100B2A007558117559FDF55A85415BFB7A0079367E
:100B3A00120687200A3AE4FFFE7D207C41AB53AAC5
:100B4A0052A951A85012001E120202AD07AC06E5C6
:100B5A004175F00AA4FFD3ED9FEC95F040587580DB
:100B6A0010E5A0541F44A0F5A053A01FD20B805635
:100B7A00E52D7020E52E701C758010E5A0541F44E9
:100B8A00A0F5A053A01F8545358544348543338598
:100B9A004232D20BC3E5459535FFE5449534FEE56F
:100BAA00439533FDE5429532FCE47B887A13F9F8E4
:100BBA00D31205B75010E4F580E5A0541F44A0F500
:100BCA00A053A01FC20B7557007558007559477B73
:090BDA00007A007936120BE322C7
:100FB300E52845277056F527752801E52D7013E5BB
:100FC3002E700F434F018545258544248543238592
:100FD3004222C3E5459525FFE5449524FEE5439567
:100FE30023FDE5429522FCE47B887A13F9F8D312BA
:100FF30005B75003534FFE200A05434F02800353A6
:0D1003004FFD300B04634F0422534FFB22BE
:1012BD00538EBF53890F758B18758DFCC28FD28ECF
:0312CD00D2AB227F
:10126A00E4FEEEC3940874809480500FC297EF1383
:0B127A0092A3EFC313FFD2970E80E792
:011285002246
:0812860075F00A84E5F04EFD4D
:10128E00C29300C29700D2930012126AAF051212D7
:04129E006AC293226B
:1010E500E4FDC29300C29700D2930012126AE4FF96
:1010F500EFC39408748094805011C297EDC313FD1B
:1011050030A303430580D2970F80E5C29300C297B1
:0C11150000D29700C2A300D2A300AF05D7
:0111210022AB
:10101000E4FD7F8E12128E12051DFF75F00A84C446
:1010200054F0FEEF7F84121286900001120536FF05
:1010300075F00A84C454F0FEEF7F8212128690008D
:1010400002120536FF75F00A84C454F0FEEF75F005
:101050000A84E5F04EFD7F8012128E7D807F8E0225
:02106000128EEE
:101062007F851210E5EFC4540F75F00AA4FEEF5409
:101072000F2E1205637F831210E5EFC4540F75F033
:101082000AA4FEEF540F2E9000011205757F811203
:1010920010E5EFC4540F75F00AA4FEEF540F2E9022
:0510A2000002020575CB
:10124D007580FFE5A0541F4480F5A053A01FE4F561
:0D125D0080E5A0541F44A0F5A053A01F225F
:1012A20020B0037F072220B1037F062220B2037FF2
:0A12B200052220B3037F0422E4FFAD
:0112BC00220F
:100CFB00C2C4D2C2D2B5D2B4E5B0540F7E00D2C4B6
:100D0B00C2C2D2B5D2B4C4F8540FC868FFEEC454F3
:100D1B00F048FEE5B0540FFDEF4DD2C4D2C2C2B5C0
:100D2B00D2B4C4F8540FC868FFEEC454F048FEE5C3
:100D3B00B0540FFDEF4DD2C4D2C2D2B5C2B4C4F879
:100D4B00540FC868FFEEC454F048FEE5B0540FFDD5
:100D5B00EF4DF4FFEEF4FEEF8EF01205FE0DF700F3
:100D6B00010DF200020DED00040DE800080DE3008B
:100D7B00100DDE00200DD900400DD400800DCF01E9
:100D8B00000DCA02000DC504000DC008000DBB10FC
:100D9B00000DB620000DB140000DAC800000000D21
:100DAB00FC755404804E7554058049755406804477
:100DBB00755407803F755408803A75540980357512
:100DCB00540A803075540B802B75540C8026755447
:100DDB000D802175540E801C75540F80177554109F
:100DEB008012755411800D75541280087554138040
:060DFB0003E4F554AF54BF
:010E010022CE
:1012D000EFF4F580E5A0541F4480F5A053A01F2231
:040003007F057E00F7
:100007007C007D0C120597EF1FAC0670011E4C702B
:02001700F622CF
:02114900AB07F2
:10114B00E4FAEAC39408748094805012C294EB13AF
:10115B009294120003D294EBC313FB0A80E47F0535
:05116B007E00020007F8
:10120800E4FAEAC39408748094805014C294EBC33F
:1012180013FBD2943094034303801200030A80E244
:02122800AF0312
:01122A0022A1
:10117000C200D2947F0C7E00120007C2947F507E82
:1011800000120007D2947F0A7E00120007A29492F8
:0611900000120003A200A2
:011196002236
:101197001211707FCC1211497F441211491211703C
:1011A7007FCC1211497FBE121149121208A90712EA
:0611B7001208EFFEE9FF43
:0111BD00220F
:060BE3008B548A5589566F
:100BE900E4F55AF55BF55AD3E55A94077480948075
:100BF9004003020CFAAB54AA55A956855B8275834A
:100C0900001205361205D80CC7200CC22D0C59301C
:100C19000C5E310C63320C68330C6D340C72350C7C
:100C290077360C7C370C81380C86390C8B410C904B
:100C3900420C95430C9A440C9F450CA4460CA948B8
:100C49000CAE4C0CB34E0CB8500CBD5500000CC783
:100C5900755CC0806C755CF98067755CA480627591
:100C69005CB0805D755C998058755C928053755C49
:100C790082804E755CF88049755C808044755C9013
:100C8900803F755C88803A755C838035755CC68069
:100C990030755CA1802B755C868026755C8E802101
:100CA900755C89801C755CC78017755CC880127576
:100CB9005C8C800D755CC18008755CBF8003755CB8
:100CC900FF855B82758300A3AB54AA55A95612050B
:100CD90036B42E05535C7F055BAB57AA58A95985D5
:100CE9005A82758300E55C120575055A055B020B8E
:010CF900F00A
:010CFA0022D7
:1010A700A8057401088002C333D8FCF580E5A05475
:1010B7001F44C0F5A053A01F7580FFE5A0541F442F
:1010C700E0F5A053A01FAF058F8275830012053688
:0E10D700F580E5A0541F44E0F5A053A01F22B1
:10001E00EC4D6011E8497017ED33EC3304600DE4DC
:10002E00FCFFFEFD22E933E8330470F802026E1283
:10003E00023958046009E4CC248150062850090284
:10004E000278284003020275C0E0EB4A7044B98082
:10005E0006D0E0FB020264EF4E701CBD8008EBFF81
:10006E00EAFEE9FD80EBE98DF0A4FEE5F002010762
:10007E00E9CDF9EAFEEBFFEF89F0A4FCE5F0CE89BD
:10008E00F0A42EFFE435F0CD89F0A42DFEE435F07A
:10009E008067EF4E7005BD80D780C3EF8BF0A4ACA8
:1000AE00F0EE8BF0A42CFCE435F0F8EF8AF0A42CE3
:1000BE00E5F038FCE433CB8DF0A42CFCE5F03BF8F6
:1000CE00EE8AF0A42CFCE5F038F8E433CF89F0A4E6
:1000DE002CFCE5F038CF3400CE89F0A42FFFE5F0EC
:1000EE003EFEE433C98DF0A42EFEE5F039CD8AF044
:1000FE00A42FFFE5F03EFEE43DFD33D0E0FB5007BC
:10010E000BBB000F020278EC2CFCEF33FFEE33FE3C
:06011E00ED33FD0202506A
:10012400020278EC5D046005E85904700302026E73
:10013400120239580460F6EC4860F2EC7004FDFEDB
:10014400FF22C860DB2481C85009C39860025006AE
:100154000202759850CAF582E9294B4A7005AB82B0
:1001640002026475F0007C1A7880C3EF9BEE9AED6E
:1001740099400DC3EF9BFFEE9AFEED99FDE842F026
:10018400DC23ACF0D0E0FFD0E0FED0E0FDAB822079
:10019400E7101BEB60BAEC2CFCEF33FFEE33FEED03
:1001A40033FD020250E803F830E705C0F075F000B3
:1001B400EF2FFFEE33FEED33FD40B830E7C280AAE7
:1001C40075F020800E75F010800575F0087D007EB6
:1001D400007F003392D530D5031205A9EC334010CB
:1001E400EF33FFEE33FEED33FDEC33FCD5F0ED22BF
:0E01F400E5F0247EA2D513CC92E7CDCEFF22FB
:10020200EDD2E7CD33EC3392D524814006E4FFFEF4
:10021200FDFC22FCE4CFCECDCC24E0501174FF8053
:10022200EDC3CC13CCCD13CDCE13CECF13CF0470F0
:07023200F030D5DE0205A942
:10062B00E56B2457F8E6056B2278543007027857B0
:10063B00E475F0011205C802051D2000EB7F2ED2D8
:10064B00008018EF540F2490D43440D4FF30040BA7
:10065B00EF24BFB41A0050032461FFE56C60021550
:10066B006C056FE56F7002056E30070D7854E475FD
:10067B00F0011205C8EF0205630211BE7403D20725
:10068B008003E4C207F56B8B548A558956E4F56CED
:10069B00F56EF56FE56C60077F2012066680F575C9
:1006AB006DFFC201C200C202C203C205C206C2086C
:1006BB00120634FF700D3007057F00120677AF6FFF
:1006CB00AE6E22B4255FC2D5C204120634FF24D00D
:1006DB00B40A00501A75F00A786C30D50508B6FFCD
:1006EB000106C6A426F620D5047002D20380D924B5
:1006FB00CFB41A00EF5004C2E5D204020964D20150
:10070B0080C6D20080C0D20280BCD2D580BAD205BE
:10071B0080B47F201206662002077401B56C00407E
:10072B00F112062BFF12066602069FD208D2068034
:10073B009512062BFB12062BFA12062BF94A4B705D
:10074B0006795B7A0A7BFF20022EE56C602A7E001D
:10075B008E8275830012053660060EEE656D70F0A5
:10076B00C2D5EBC0E0EAC0E0E9C0E0EE1209C4D0AC
:10077B00E0F9D0E0FAD0E0FB12051DFF60AAEBC058
:10078B00E0EAC0E0E9C0E0120666D0E02401F9D04F
:10079B00E03400FAD0E0FBE56D0460DCD56DD98068
:1007AB0087D20280A21209A760F7E56D70010412CF
:1007BB000283A96D600DE56D600914F56D120A4E8B
:1007CB00EF60F3EA30E702F404C3995077EAF425BB
:1007DB006D0430E701E404F56D800D1209A760C1CB
:1007EB00EA056D256D120283EA786AF630E701E4BB
:1007FB00256D04D56D04200501141209C4E4C0E075
:10080B00120A4E786AE6601320E70714F612064EBA
:10081B00802204F6D0E014C0E07F0012064EE56D96
:10082B006007120645156D800B300503120645D087
:10083B00E002069FD0E00480C51209A760A0E56D19
:10084B0004120283786AEAF6E56D20050260010462
:05085B0024041209C491
:1008600074FF04C0E0120A4E12064EE56D20050228
:100870006003120645D0E0B56DE87F451206587852
:100880006AE67F2B30E7047F2DF404C0E012066691
:10089000D0E075F00A84C0F012064FD0E012064F87
:1008A00002069F791080027908C206C2088008D229
:1008B000D5790A8004790AC2D5E56D047002F56D18
:1008C000E4FAFDFEFF12062BFC7B08200113120642
:1008D0002BFD7B1030000A12062BFE12062BFF7B2D
:1008E00020EC3382D592D55013C3E43000069FFF2D
:1008F000E49EFEE42001039DFDE49CFCE4CBF8C2F1
:1009000001EC700CCFCECDCCE824F8F870F3801752
:10091000C3EF33FFEE33FEED33FDEC33FCEB33FB83
:10092000994002FB0FD8E9EB300105F8D0E0C4484C
:10093000B201C0E00AEC4D4E4F78207B0070C2EA55
:10094000B56D0040BCC0E01209C6D0F0D0E0200177
:1009500004C4C0E0C4B201C0F012064FD0F0D5F01C
:10096000EB02069F1205D8073C5308A358070D4C0D
:1009700007094208A74F08AF4408AF4907224308B8
:10098000B55507E64608444507B0470A7B500711AE
:100990002D07152E07382B0719230736200A642A3E
:1009A00006D14800000730E56DB4FF03756D0612EF
:1009B000062BFC12062BFD12062BFE12062BFF78CF
:1009C000630202B2790AA2D5200314300509B910D6
:1009D000020404B9080104A2D52006025001042033
:1009E00002689202B56C005034C0E07F20300319D9
:1009F0007F30A20272067205500F120A1DC202C297
:100A000006C205C2087F30800F300503E9C0E0123E
:100A10000666300503D0E0F9D0E0B56CCC300517A0
:100A20007F30B9100C1206667F583004077F78803B
:100A300003B908031206663002057F2D0206667FA1
:100A4000202008F87F2B2006F322920280CF7F001F
:100A5000B4070050052463F8E6FF22286E756C6C1D
:100A60002900D20112062B3001F8C201786C30D572
:100A70000108F60206D12D5043495812062B2403D3
:100A8000B405004001E4900A7693120657743A12B6
:0A0A90000657D203756C040208A398
:10023900E9D2E7C933E833F892D5EDD2E7CD33EC0B
:0702490033FC5002B2D52284
:10025000EC30E7100FBF000C0EBE00080DBD00040F
:100260000BEB6014A2D5EB13FCED92E7FD2274FFBB
:10027000FCFDFEFF22E480F8A2D574FF13FC7D8014
:03028000E480EF28
:10028300F920E72824F950037907E4F42402FB1842
:10029300DBFDE624FB5014E9600DE4F618E604F6F2
:0F02A300B40A08E4F6D9F57401F60A22C2D5228E
:1002B200ED33EC3392D5FA602AB4FF33EDC2E77B1B
:1002C200FF60067A0279D7E4227A0279E020D50427
:1002D2007A0279DB224E614E002B494E46002D49AF
:1002E2004E4600E47A08F608DAFC7B00740722E83E
:1002F200C0E0ECC0E0EDC0E0EEC0E0EFC0E0EA75C7
:10030200F010A4CAABF075F04DA42BFBE435F0FC61
:10031200EA2410FAEB34C5FBEC34D9FCEDC2E7FF5A
:1003220075F056A4F42411C5F0F434C58FF0A42A54
:10033200E5F03BE43CF620E7141204DDD0E0FFD008
:10034200E0FED0E0FDD0E0FC1201278014F404129C
:1003520004DDD0E0FFD0E0FED0E0FDD0E0FC1200F2
:100362001ED0E0F8E6FAEDD2E7CD33EC332482FB7F
:10037200E4C3CF33CFCE33CECD33CD33DBF37B07E4
:1003820075F00A846004F6081B0AE5F0F6088FF09F
:10039200740AA4FFACF08EF0740AA42CFEACF050E8
:1003A200010C8DF0740AA42CFDE435F0F608DBDEB6
:0303B200740722AB
:1003B50002026EE86480F8E933E83360110460F006
:1003C500ED33EC337009E8FCE9FDEAFEEBFF2204AE
:1003D50060DED3EB9FEA9EE99DE8C2E78CF0C2F7A9
:1003E50095F0400CE8CCF8E9CDF9EACEFAEBCFFB75
:1003F50012023985D0F05804700320D5B3E8047093
:10040500075002B2D502027892D5EC0460F7E4CC2D
:10041500C0E0C398F8603B94186008400DD0E0FB3D
:10042500020250E4FBFAC9FC8028E830E406E4C97E
:10043500FBE4CAFCE830E305E4C9CACBFCE8540791
:100445006010F8C3E913F9EA13FAEB13FBEC13FC9C
:10045500D8F130F52FC3E49CFCEF9BFFEE9AFEED3F
:1004650099FDD0E0FBEF4E4D4C701222DB030202EA
:1004750075EC2CFCEF33FFEE33FEED33FDED30E78D
:10048500EB020250EF2BFFEE3AFEED39FDD0E0FB1B
:1004950050130BBB0003020278ED13FDEE13FEEFC4
:0804A50013FFEC13FC020250EE
:1004AD003F8000004120000042C80000447A000057
:1004BD00461C400047C35000497424004B189680D9
:1004CD004CBEBC205A0E1BCA6753C21C749DC5AED0
:1004DD00FB60065407601C232312050BEB54386098
:1004ED00091204F712050612001EECF8EDF9EEFAEA
:1004FD00EFCB22EB12050680F1543803241C900437
:10050D00ADFE93FC0EEE93FD0EEE930ECE93FF22F9
:03000000020E9F4E
:0C0E9F00787FE4F6D8FD75816F020EE646
:10051D00BB010689828A83E0225002E722BBFE02DC
:09052D00E32289828A83E493220F
:10053600BB010CE58229F582E5833AF583E022507A
:1005460006E92582F8E622BBFE06E92582F8E222C4
:0D055600E58229F582E5833AF583E49322DE
:10056300BB010689828A83F0225002F722BBFE0177
:02057300F32271
:10057500F8BB010DE58229F582E5833AF583E8F0BC
:10058500225006E92582C8F622BBFE05E92582C868
:02059500F22250
:10059700EF8DF0A4A8F0CF8CF0A428CE8DF0A42E78
:0205A700FE2232
:0E05A900C3E49FFFE49EFEE49DFDE49CFC2263
:1005B700EB9FF5F0EA9E42F0E99D42F0E89C45F09A
:0105C7002211
:1005C800FAE6FB0808E6F925F0F618E6CA3AF62234
:1005D800D083D082F8E4937012740193700DA3A3B2
:1005E80093F8740193F5828883E4737402936860C6
:0605F800EFA3A3A380DFC6
:1005FE00D083D082F8E4937012740193700DA3A38C
:10060E0093F8740193F5828883E473740293B5F0C2
:0D061E00067403936860E9A3A3A3A380D82A
:1011BE00EFB40A07740D1211C9740A309811A89968
:1011CE00B8130CC2983098FDA899C298B811F63091
:0711DE0099FDC299F5992269
:100EAB0002122BE493A3F8E493A34003F68001F220
:100EBB0008DFF48029E493A3F85407240CC8C33348
:100ECB00C4540F4420C8834004F456800146F6DF17
:100EDB00E4800B0102040810204080901122E47E74
:100EEB00019360BCA3FF543F30E509541FFEE4930C
:100EFB00A360010ECF54C025E060A840B8E493A3D3
:100F0B00FAE493A3F8E493A3C8C582C8CAC583CAFD
:100F1B00F0A3C8C582C8CAC583CADFE9DEE780BEB5
:0111480000A6
:00000001FF
