:030000000208AF44
:0C08AF00787FE4F6D8FD75814B0208F656
:1009C500014800012600012200014700023F000006
:1009D50002290000023700000121000146000145FF
:1009E5000002430000022B000002410000023A0011
:1009F5000001301E012F0001390002270000023CD2
:100A050000000223000002340000022D0000012531
:0D0A150000013300013600013200013E00F7
:100384007F057E00120BD7C284C2867E007F017D6A
:10039400FF7B007A007931120358120A48D3E54AE8
:1003A4009420E54994034005120AC580F07F0112A8
:1003B4000CDB120E7D120B59120C42120E90D2AFAE
:1003C400C3E5389490E5379401500302045D120BA1
:1003D40059120AC5E54A2542FFE5493541C313F5DB
:1003E40049EF13F54A854941F542E51F451E604230
:1003F400AC1EAD1FE41202297B347A117936783DA4
:1004040012011E7B7B7A14798E783F12002D120222
:10041400627C007D0A1202E38E278F28E5282535A9
:10042400FFE5273534C313F527EF13F52885273463
:10043400F535E4F537F538C3E53D9528E53C9527D2
:10044400500685273C85283DD3E54A9544E54995E2
:10045400434006854943854A44E525600302058EE9
:10046400C3E540942CE53F940150030204F4120EBA
:10047400C38F2FEF2432FFE433FED3E5399FEE64BC
:1004840080F874809840610533120B5985143685C1
:100494001532120AC585492B854A2C8527238528C0
:1004A40024854826754803C3E533940274809480F8
:1004B4004027E53B952CE53A952B5010C3E52E9546
:1004C40024E52D952350055331DF80034331207FEC
:1004D400047E00120BD7853180852B3A852C3B8511
:1004E400232D85242E752501852F39E4F53FF5400C
:1004F400C3E5479464748094804079120CA88F21DA
:10050400E52165465521F54585214624FB602124D6
:10051400FD603614604824057057E5482401FFE463
:1005240033FE7C007D031202F58D48120C4280419B
:10053400E5486401703BE5222401FFE433FE7C00BE
:100544007D031202F58D228028E54864027022C3DF
:10055400E530946374809480501705308013E54827
:100564006402700DD3E530940074809480400215C9
:1005740030E4F547E53075F00AA4FFD3E54A9FE57A
:100584004995F0401A753E018015C3E52A94B8E5F3
:1005940029940B400AE4F525852648F529F52AE532
:1005A40048146013146016146019240360030203D2
:1005B400C4120B100203C41205CD0203C4120D7D34
:0905C4000203C412093B0203C446
:100B1000900C86E493F50DF50AE51475F00A8490BF
:100B20000C7593F508E51475F00A84E5F093F50962
:100B3000E51575F00A8493F50BE51575F00A84E563
:100B4000F093F50CE51675F00A8493F50EE516752D
:090B5000F00A84E5F093F50F2290
:1005CD00E52214700302066B14700302070F240258
:1005DD006003020766750839E4F509E53370030217
:1005ED000675AE43AF447C007D641202F574752F21
:1005FD00F582740C3EF583E493F50AAE43AF447C6B
:10060D00007D0A1202F57C007D0A1202F574752D2B
:10061D00F582740C3CF583E493F50B750C40AE49F3
:10062D00AF4A7C007D641202F574752FF582740C4F
:10063D003EF583E493F50DAE49AF4A7C007D0A1279
:10064D0002F57C007D0A1202F574952DF582740C6D
:10065D003CF583E493F50EAE49AF4A0206FB7508EF
:10066D0076E4F509E533700DF50FF50EF50DF50C86
:10067D00F50BF50A22AE3CAF3D7C007D641202F510
:10068D0074752FF582740C3EF583E493F50AAE3C38
:10069D00AF3D7C007D0A1202F57C007D0A1202F549
:1006AD0074752DF582740C3CF583E493F50B750C84
:1006BD0040AE27AF287C007D641202F574752FF5CE
:1006CD0082740C3EF583E493F50DAE27AF287C00C4
:1006DD007D0A1202F57C007D0A1202F574952DF546
:1006ED0082740C3CF583E493F50EAE27AF287C00A5
:1006FD007D0A1202F574752DF582740C3CF583E4B8
:10070D008054750871E53375F00A84900C7593F576
:10071D0009E53375F00A84E5F093F50AE533700BBE
:10072D00F50FF50EF50DF50CF50B22E53675F00A06
:10073D0084900C7593F50BE53675F00A84E5F0930E
:10074D00F50C750D40E53275F00A8493F50EE53222
:0A075D0075F00A84E5F093F50F2211
:100D7D00750873E4F50DF50CF50BF50AF509E5307D
:100D8D0075F00A84900C7593F50EE53075F00A84B4
:060D9D00E5F093F50F22C2
:10093B00750879E4F509F50AAE2BAF2CFC7D641232
:10094B0002F574752FF582740C3EF583E493F50B69
:10095B00AE2BAF2C7C007D0A1202F57C007D0A12B7
:10096B0002F574752DF582740C3CF583E493F50C4C
:10097B00750D40E51F451E7007750E77750F7722B5
:10098B00AE23AF247C007D641202F574752FF582C3
:10099B00740C3EF583E493F50EAE23AF247C007DFF
:1009AB000A1202F57C007D0A1202F574752DF58290
:0A09BB00740C3CF583E493F50F2261
:100C4200E54814600F146017240270265331FE43E6
:100C5200310280064331015331FD4331048009439F
:100C620031014331025331FB7F047E00120BD785E1
:030C7200318022AC
:04000300D2A07F0503
:10000700000000000000000000000000AE071FEE27
:0300170070EE2266
:0F0EB400D2A1120003C2A17F05120007C2A02223
:0C0ED000C2A1120003D2A17F050200079E
:100E3F00C2A0A20092A17F05120007120003C2A058
:070E4F00D2A17F050200079C
:100EA300120003A2A19201C2A07F05120007A201B2
:010EB300221C
:020C0D00AD0731
:100C0F00E4FCECC39408748094805024C2A07F0548
:100C1F00120007ED30E704D2A18002C2A17F0512B6
:100C2F000007D2A0ED25E0FD7F051200070C80D252
:020C3F00C2A051
:010C41002290
:100DA300E4FCECC39408748094805017120003EDA4
:100DB30025E0FD30A103430501C2A07F0512000712
:050DC3000C80DFAF050C
:010DC8002208
:040DEC007F057E0001
:100DF000EF1FAA0670011E4A600FE4FDEDC3940CBC
:090E00007480948050EA0D80F327
:010E090022C6
:020D2F00A90712
:100D3100E4FBEBC39408748094805012C294E913CD
:100D41009294120DECD294E9C313F90B80E47F0560
:050D51007E00020DF020
:100DC900E4FBEBC39408748094805014C294ECC380
:100DD90013FCD294309403430480120DEC0B80E28F
:020DE900AF0455
:010DEB0022E5
:100D5600C200D2947F0C7E00120DF0C2947F507EAA
:100D660000120DF0D2947F0A7E00120DF0A294922A
:060D760000120DECA200CA
:010D7C002254
:100E6A00759850438E01438E0475D7C775D6FE43D5
:030E7A008E1022B5
:080EDC008F993099FDC29922A3
:05001E00AE07020EDC3C
:03002300020E26A4
:100E2600C0D075D000C00730980A85994BC298AFDC
:090E36004B120EDCD007D0D032C3
:0A0A220002170000011900011A007C
:03001B0002076772
:10076700C0E0C0F0C083C082C0D075D000C000C058
:0D07770001C002C003C004C005C006C007D9
:100784007408251AF8E6F4FDAF1A120D07051AE5E8
:100794001A64087002F51A05470540E54070020521
:1007A4003F0538E53870020537E525640170080512
:1007B4002AE52A700205290518E518700205176450
:1007C400E87004E51764037071C28C308D165331E0
:1007D400EF7F04FE120BD7853180751E00751F0054
:1007E400C28D8048AF8CEFFEAD8A7C00E42DF51FEE
:1007F400EC3EF51EC3E51F94C8E51E9400400BD3E0
:10080400E51F94D0E51E940740155331EF7F047E15
:1008140000120BD7853180751E00751F00800D43B3
:1008240031107F047E00120BD7853180758A0075E4
:100834008C00751700751800D28CE53E6401705069
:100844000519C3E5199464748094804022AF31EF94
:100854001313135401F4540133333354F8FFE531C3
:1008640054F74FF5317F047E00120BD7853180E5B4
:100874003075F00AA4FFC3E54A9FE54995F050108E
:100884004331087F047E00120BD7853180753E000A
:10089400D007D006D005D004D003D002D001D000B8
:0B08A400D0D0D082D083D0F0D0E03262
:100C75003F065B4F666D7D077F6F777C395E7971C7
:100C85000040761E7038375C733E783D6750376E8E
:100C9500BF86DBCFE6EDFD87FFEF460102040810B6
:030CA5002040806C
:0A0A2C0008083F065B4F666D7D076A
:100D07008F1C8D1D7F077E00120BD77580FF7F0616
:100D17007E00120BD7E51C900CA093F5807F077E11
:080D270000120BD7851D80228C
:100BD700EE7032EF24FB601314601914601F2403B6
:100BE7007023E5A0541F4480F5A022E5A0541F44BC
:100BF700A0F5A022E5A0541F44C0F5A022E5A0540B
:060C07001F44E0F5A022ED
:040A3600021E00009C
:100E7D00438E4053890F758B20758DD1C28FD28EC5
:030E8D00D2AB22C3
:100E9000438E805389F0438905E4F58AF58CC28D31
:030EA000D28C22CF
:090A3A000710110901060D030566
:100E0A00E4FEEEC3940874809480500FC297EF13E7
:0B0E1A0092A3EFC313FFD2970E80E7F6
:010E250022AA
:100E5600C29300C29700D29300120E0AAF05120E7B
:040E66000AC2932207
:100B9A00E4FDC29300C29700D29300120E0AE4FF4A
:100BAA00EFC39408748094805011C297EDC313FD6B
:100BBA0030A303430580D2970F80E5C29300C29702
:0C0BCA0000D29700C2A300D2A300AF0528
:010BD60022FC
:100A4800E4FFEFC3940774809480502174102FF84A
:100A5800E6FE75F00A84C454F0FDEE75F00A84AE23
:100A6800F0ED2EFC74102FF8A6040F80D5E4FD7F5E
:100A78008E120E567D807F80120E56AD107F8C121E
:100A88000E56AD117F88120E56AD127F86120E5685
:100A9800AD137F8A120E56AD147F84120E56AD1513
:100AA8007F82120E56AD167F80120E56E516547FC1
:0D0AB800FD7F80120E567D807F8E020E564F
:100B59007F85120B9A8F147F83120B9A8F157F81D1
:100B6900120B9AEF547FF5167F04EFC39407748034
:100B79009480501C74102FF8E6FEC4540F75F00AC7
:100B8900A4FDEE540F2DFE74102FF8A6060F80DA7F
:010B99002239
:100CA800E4FFD2C4D2C2D2B5D2B4D2B3D2B2D2B196
:100CB800D2B0C2B220C2047F09800520C4027F05D9
:100CC800D2B2C2B320C2047F08800520C4027F04C8
:020CD800D2B395
:010CDA0022F7
:040A43000249033E23
:100AC500E4F51BFF120D567FCC120D2F7F44120D3E
:100AD5002F7FC87E00120DF0120D567FCC120D2F00
:100AE5007FBE120D2F120DC98F1B120DC9EFFEE52A
:100AF5001BFFFDAC06EC120229E4FBFA7920783FD6
:0A0B050012011E1202628E498F4A8F
:010B0F0022C3
:020CDB008F1B6D
:100CDD00C200120EB47F90120C0D120EA3AF1B1298
:100CED000C0D120EA3120ED0120EB47F91120C0D1C
:090CFD00120EA34002D200A20075
:010D060022CA
:0C0EC300120DA38F1BC200120E3FAF1BCC
:010ECF002200
:100026000202CEE86480F8E933E83360110460F038
:10003600ED33EC337009E8FCE9FDEAFEEBFF220440
:1000460060DED3EB9FEA9EE99DE8C2E78CF0C2F73B
:1000560095F0400CE8CCF8E9CDF9EACEFAEBCFFB07
:1000660012029985D0F05804700320D5B3E80470C5
:10007600075002B2D50202D892D5EC0460F7E4CC60
:10008600C0E0C398F8603B94186008400DD0E0FBD0
:100096000202B0E4FBFAC9FC8028E830E406E4C9B1
:1000A600FBE4CAFCE830E305E4C9CACBFCE8540724
:1000B6006010F8C3E913F9EA13FAEB13FBEC13FC2F
:1000C600D8F130F52FC3E49CFCEF9BFFEE9AFEEDD2
:1000D60099FDD0E0FBEF4E4D4C701222DB0302027D
:1000E600D5EC2CFCEF33FFEE33FEED33FDED30E7C0
:1000F600EB0202B0EF2BFFEE3AFEED39FDD0E0FB4E
:1001060050130BBB00030202D8ED13FDEE13FEEFF6
:0801160013FFEC13FC0202B020
:10011E00EC4D6011E8497017ED33EC3304600DE4DB
:10012E00FCFFFEFD22E933E8330470F80202CE1222
:10013E00029958046009E4CC248150062850090223
:10014E0002D82840030202D5C0E0EB4A7044B980C1
:10015E0006D0E0FB0202C4EF4E701CBD8008EBFF20
:10016E00EAFEE9FD80EBE98DF0A4FEE5F002020760
:10017E00E9CDF9EAFEEBFFEF89F0A4FCE5F0CE89BC
:10018E00F0A42EFFE435F0CD89F0A42DFEE435F079
:10019E008067EF4E7005BD80D780C3EF8BF0A4ACA7
:1001AE00F0EE8BF0A42CFCE435F0F8EF8AF0A42CE2
:1001BE00E5F038FCE433CB8DF0A42CFCE5F03BF8F5
:1001CE00EE8AF0A42CFCE5F038F8E433CF89F0A4E5
:1001DE002CFCE5F038CF3400CE89F0A42FFFE5F0EB
:1001EE003EFEE433C98DF0A42EFEE5F039CD8AF043
:1001FE00A42FFFE5F03EFEE43DFD33D0E0FB5007BB
:10020E000BBB000F0202D8EC2CFCEF33FFEE33FEDB
:06021E00ED33FD0202B009
:1002240075F020800E75F010800575F0087D007E55
:10023400007F003392D530D50312034AEC334010CB
:10024400EF33FFEE33FEED33FDEC33FCD5F0ED225E
:0E025400E5F0247EA2D513CC92E7CDCEFF229A
:10026200EDD2E7CD33EC3392D524814006E4FFFE94
:10027200FDFC22FCE4CFCECDCC24E0501174FF80F3
:10028200EDC3CC13CCCD13CDCE13CECF13CF047090
:07029200F030D5DE02034A43
:10029900E9D2E7C933E833F892D5EDD2E7CD33ECAB
:0702A90033FC5002B2D52224
:1002B000EC30E7100FBF000C0EBE00080DBD0004AF
:1002C0000BEB6014A2D5EB13FCED92E7FD2274FF5B
:1002D000FCFDFEFF22E480F8A2D574FF13FC7D80B4
:0302E000E480EFC8
:1008BB00020384E493A3F8E493A34003F68001F2CC
:1008CB0008DFF48029E493A3F85407240CC8C3333E
:1008DB00C4540F4420C8834004F456800146F6DF0D
:1008EB00E4800B01020408102040809009C5E47ECF
:1008FB00019360BCA3FF543F30E509541FFEE49302
:10090B00A360010ECF54C025E060A840B8E493A3C8
:10091B00FAE493A3F8E493A3C8C582C8CAC583CAF3
:10092B00F0A3C8C582C8CAC583CADFE9DEE780BEAB
:010A470000AE
:1002E300EF8DF0A4A8F0CF8CF0A428CE8DF0A42E2F
:0202F300FE22E9
:1002F500BC000BBE0029EF8DF084FFADF022E4CCED
:10030500F875F008EF2FFFEE33FEEC33FCEE9DECB5
:10031500984005FCEE9DFE0FD5F0E9E4CEFD22EDFB
:10032500F8F5F0EE8420D21CFEADF075F008EF2F45
:10033500FFED33FD4007985006D5F0F222C398FD36
:050345000FD5F0EA22D3
:0E034A00C3E49FFFE49EFEE49DFDE49CFC22C4
:10035800EF4E6012EF60010EEDBB010B89828A83BC
:10036800F0A3DFFCDEFA2289F05007F709DFFCA9C9
:0C037800F022BBFEFCF309DFFCA9F02220
:00000001FF
