:1011E4004320202025352E32660050202020202048
:1011F4002530326400412020202025342E32660020
:1011C200043C000000000843FFFFFFFFFFFFFFFF9A
:1011D200014B00012200013019013119C109014CF2
:0111E200000C
:0E131B0000007F237E337DB6DDFEDEFCDFFAB0
:0113290022A1
:10127B001212411212F8D2AF12114E12131B120F8F
:0C128B008A120DD61210BC120EFF80F269
:03001B00020D1DB6
:100D1D00C0E0C0F0C083C082C0D075D000C000C09C
:100D2D0001C002C003C004C005C006C007E53F24D2
:100D3D0001F53FE4353EF53EE4353DF53DE4353C0A
:100D4D00F53C052FE52F7002052E640A452E700423
:100D5D00F52EF52F052BE52B7002052AFFAE2ABEC9
:100D6D000109BFF406752A00752B000529E52970C8
:100D7D00020528646445287004F528F5290541E528
:100D8D004170020540FFAE40BE0109BFF40675403B
:100D9D00007541007B007A007943AD421210410588
:100DAD0042E542B40803754200AF4B12130BD00756
:100DBD00D006D005D004D003D002D001D000D0D0C1
:090DCD00D082D083D0F0D0E032D6
:100F8A00E52F452E7063752E00752F01120C168FF2
:100F9A0023E52D65235523F52C85232D24FB604459
:100FAA0024FD601B14602B2405703E0522E522B443
:100FBA000303E4F522E5226402702E85303122E52E
:100FCA0022640170241530E530D394C8401BE4F53F
:100FDA003022E522B401120530E530D3946340098A
:0A0FEA0075306322A209B3920922B8
:100DD600E52B452A6003020E72752A00752B011257
:100DE600114EAC06AD07E412033AE4FBFA798078BB
:100DF6004112021F8F278E268D258C24E522146032
:100E06001E14602C240270527550FF7551117552D4
:100E1600E4852756852655852554852453803275C5
:100E260050FF7551117552EE75530085305480216F
:100E36007550FF7551117552F9AC4CE412033FE43D
:100E4600FBFA794C784212021F8F568E558D548CC0
:100E5600537B007A0079321206EF75500075510007
:0D0E66007552437B007A007932120B022294
:1010BC00E52945287031752800752901200905435B
:1010CC004B018003534BFEE52214600E1460122476
:1010DC00027014534BF1434B0222534BF1434B041C
:0810EC0022534BF1434B082293
:100EFF00E54145406003020F8975400075410120AF
:100F0F00091DAC31E412033FAB27AA26A925A8245B
:100F1F001202BC5005E4F54C805B754CFF8056E423
:100F2F00FFFE7DA07C41AB27AA26A925A82412028B
:100F3F00BC5005754C33803DE4FFFE7D207C42ABF9
:100F4F0027AA26A925A8241202BC60074005754CC4
:100F5F00CC80227FCD7ECC7DF47C40AB27AA26A906
:100F6F0025A824120116E4FBFA79CC78C2120025C9
:0B0F7F001203738F4CAF4C1212E222E1
:1012F800538EBF53890F758B18758DFCC28FD28E94
:03130800D2AB2243
:101241007580FFE5A0541F4480F5A053A01FE4F56D
:0D12510080E5A0541F44A0F5A053A01F226B
:1012040020B0047F07801720B1047F06801020B22D
:0E121400047F05800920B3047F048002E4FFFC
:0112220022A9
:100C1600C2C4D2C2D2B5D2B4E5B0540F7E00D2C49B
:100C2600C2C2D2B5D2B4C4F8540FC868FFEEC454D9
:100C3600F048FEE5B0540FFDEF4DD2C4D2C2C2B5A6
:100C4600D2B4C4F8540FC868FFEEC454F048FEE5A9
:100C5600B0540FFDEF4DD2C4D2C2D2B5C2B4C4F85F
:100C6600540FC868FFEEC454F048FEE5B0540FFDBB
:100C7600EF4DF4FFEEF4FEEF8EF01206660D120055
:100C8600010D0D00020D0800040D0300080CFE0006
:100C9600100CF900200CF400400CEF00800CEA0167
:100CA600000CE502000CE004000CDB08000CD6107A
:100CB600000CD120000CCC40000CC7800000000DB9
:100CC60017754D04804E754D058049754D06804457
:100CD600754D07803F754D08803A754D098035750D
:100CE6004D0A8030754D0B802B754D0C8026754D49
:100CF6000D8021754D0E801C754D0F8017754D109A
:100D06008012754D11800D754D128008754D13803A
:060D160003E4F54DAF4DB2
:010D1C0022B4
:10130B00EFF4F580E5A0541F4480F5A053A01F22F5
:0412CC007F057E001C
:1012D0007C007D0C120610EF1FAC0670011E4C70D6
:0212E000F622F4
:02122300AB0717
:10122500E4FAC294EB1392941212CCD294EBC3134A
:0C123500FB0ABA08ED7F057E000212D013
:1012B200E4FAC294EBC313FBD29430940343038049
:0912C2001212CC0ABA08EBAF03CA
:0112CB002200
:10112700C200D2947F0C7E001212D0C2947F507EF0
:10113700001212D0D2947F0A7E001212D0A294928B
:06114700001212CCA20010
:01114D00227F
:10114E001211277FCC1212237F4412122312112761
:10115E007FCC1212237FBE1212231212B2A90712D3
:06116E0012B2EFFEE9FFE2
:011174002258
:060B02008B4D8A4E894F65
:100B0800E4F553F554F553E553D394074003020C29
:100B180015AB4DAA4EA94F8554827583001205AFB7
:100B28001206400BE2200BDD2D0B74300B79310BD4
:100B38007E320B83330B88340B8D350B92360B9733
:100B4800370B9C380BA1390BA6410BAB420BB043BA
:100B58000BB5440BBA450BBF460BC4480BC94C0B2D
:100B6800CE4E0BD3500BD85500000BE27555C08004
:100B78006C7555F980677555A480627555B0805DB0
:100B880075559980587555928053755582804E7564
:100B980055F880497555808044755590803F755546
:100BA80088803A75558380357555C680307555A14E
:100BB800802B755586802675558E802175558980C0
:100BC8001C7555C780177555C8801275558C800DD2
:100BD8007555C180087555BF80037555FF855482CA
:100BE800758300A3AB4DAA4EA94F1205AFB42E05CD
:100BF80053557F0554AB50AA51A95285538275832A
:0D0C080000E5551205EE05530554020B0FD3
:010C150022BC
:101041007401A805088002C333D8FCF580E5A054DB
:101051001F44C0F5A053A01F7580FFE5A0541F4495
:10106100E0F5A053A01FAF058F827583001205AF75
:0E107100F580E5A0541F44E0F5A053A01F2217
:04133900D2A07F05BA
:08133D0000AE071FEE70F9225B
:0F132A00D2A1121339C2A17F0512133DC2A02216
:0C134500C2A1121339D2A17F0502133D92
:10000300C2A0A20A92A17F0512133D121339C2A006
:07001300D2A17F0502133D9D
:0A129700AB0712132A7F901210FB20
:1012A100121339A2A19200C2A07F0512133DA20020
:0112B100221A
:0710F400AB0512132A7FA0D7
:0210FB00AD073F
:1010FD00E4FCC2A07F0512133DED30E704D2A180C0
:10110D0002C2A17F0512133DD2A0ED25E0FD7F05A2
:09111D0012133D0CBC08DBC2A05A
:0111260022A6
:10125E00E4FC121339ED25E0FD30A103430501C274
:0C126E00A07F0512133D0CBC08E8AF0582
:01127A002251
:10119C00121297AF031210FB1212A112132A7F9195
:1011AC001210FB1212A112125EAD07D20A1200032A
:0511BC00121345AF0510
:0111C100220B
:100FF4008B088A09890A1210F41212A1AF03121085
:10100400FB1212A112132A7FA11210FB1212A1AF1C
:101014000C150CEF602412125EAB08050AE50AAA4F
:10102400097002050914F9EF1205DCE50C6004C22D
:0D1034000A8002D20A12000380D502134583
:1012E2001212977F411210FB1212A1AF031210FBD0
:0612F2001212A1021345D7
:10107F008B0D8A0E890F1210F41212A1AF031210EA
:10108F00FB1212A1AF111511EF601FAB0D050FE58C
:10109F000FAA0E7002050E14F9120596FF1210FB1F
:0D10AF001212A17FC812133D80DA02134512
:10001E000203DFE86480F8E933E83360110460F02E
:10002E00ED33EC337009E8FCE9FDEAFEEBFF220448
:10003E0060DED3EB9FEA9EE99DE8C2E78CF0C2F743
:10004E0095F0400CE8CCF8E9CDF9EACEFAEBCFFB0F
:10005E001203AA85D0F05804700320D5B3E80470BB
:10006E00075002B2D50203E992D5EC0460F7E4CC56
:10007E00C0E0C398F8603B94186008400DD0E0FBD8
:10008E000203C1E4FBFAC9FC8028E830E406E4C9A7
:10009E00FBE4CAFCE830E305E4C9CACBFCE854072C
:1000AE006010F8C3E913F9EA13FAEB13FBEC13FC37
:1000BE00D8F130F52FC3E49CFCEF9BFFEE9AFEEDDA
:1000CE0099FDD0E0FBEF4E4D4C701222DB03020384
:1000DE00E6EC2CFCEF33FFEE33FEED33FDED30E7B7
:1000EE00EB0203C1EF2BFFEE3AFEED39FDD0E0FB44
:1000FE0050130BBB00030203E9ED13FDEE13FEEFED
:08010E0013FFEC13FC0203C116
:10011600EC4D6011E8497017ED33EC3304600DE4E3
:10012600FCFFFEFD22E933E8330470F80203DF1218
:1001360003AA58046009E4CC248150062850090219
:1001460003E92840030203E6C0E0EB4A7044B980A5
:1001560006D0E0FB0203D5EF4E701CBD8008EBFF16
:10016600EAFEE9FD80EBE98DF0A4FEE5F00201FF71
:10017600E9CDF9EAFEEBFFEF89F0A4FCE5F0CE89C4
:10018600F0A42EFFE435F0CD89F0A42DFEE435F081
:100196008067EF4E7005BD80D780C3EF8BF0A4ACAF
:1001A600F0EE8BF0A42CFCE435F0F8EF8AF0A42CEA
:1001B600E5F038FCE433CB8DF0A42CFCE5F03BF8FD
:1001C600EE8AF0A42CFCE5F038F8E433CF89F0A4ED
:1001D6002CFCE5F038CF3400CE89F0A42FFFE5F0F3
:1001E6003EFEE433C98DF0A42EFEE5F039CD8AF04B
:1001F600A42FFFE5F03EFEE43DFD33D0E0FB5007C3
:100206000BBB000F0203E9EC2CFCEF33FFEE33FED1
:06021600ED33FD0203C1FF
:10021C000203E9EC5D046005E8590470030203DF96
:10022C001203AA580460F6EC4860F2EC7004FDFE70
:10023C00FF22C860DB2481C85009C39860025006B5
:10024C000203E69850CAF582E9294B4A7005AB8245
:10025C000203D575F0007C1A7880C3EF9BEE9AED03
:10026C0099400DC3EF9BFFEE9AFEED99FDE842F02D
:10027C00DC23ACF0D0E0FFD0E0FED0E0FDAB822080
:10028C00E7101BEB60BAEC2CFCEF33FFEE33FEED0A
:10029C0033FD0203C1E803F830E705C0F075F00048
:1002AC00EF2FFFEE33FEED33FD40B830E7C280AAEE
:1002BC0074F8CC6480CCC86480C8F58204604FC3E9
:1002CC00EB9FF5F0EA9E42F0E99D42F0E89C45F088
:1002DC00603C501DE5825FFFE582D313CB5BCBF412
:1002EC002B5582FB50280ABA002409B9002008803B
:1002FC001DE5825BFBE582D313CF5FCFF4C3132FD5
:10030C005582FF50090EBE00050DBD00010CC3EB5C
:10031C009FF5F0EA9E42F0E99D42F0E89C45F060C2
:09032C0007CC4820E701B3EC22E4
:1003350075F020800E75F010800575F0087D007E43
:10034500007F003392D530D503120622EC334010DE
:10035500EF33FFEE33FEED33FDEC33FCD5F0ED224C
:0E036500E5F0247EA2D513CC92E7CDCEFF2288
:10037300EDD2E7CD33EC3392D524814006E4FFFE82
:10038300FDFC22FCE4CFCECDCC24E0501174FF80E1
:10039300EDC3CC13CCCD13CDCE13CECF13CF04707E
:0703A300F030D5DE02062256
:10069300E5642450F8E6056422784D30070278506B
:1006A300E475F0011206300205962000EB7F2ED28E
:1006B300008018EF540F2490D43440D4FF30040B3F
:1006C300EF24BFB41A0050032461FFE565600215EF
:1006D300650568E5687002056730070D784DE475B8
:1006E300F001120630EF0205DC0211757403D20724
:1006F3008003E4C207F5648B4D8A4E894FE4F565A8
:10070300F567F568E56560077F201206CE80F5750D
:1007130066FFC201C200C202C203C205C206C2080A
:1007230012069CFF700D3007057F001206DFAF68CD
:10073300AE6722B4255FC2D5C20412069CFF24D043
:10074300B40A00501A75F00A786530D50508B6FF6B
:100753000106C6A426F620D5047002D20380D9244C
:10076300CFB41A00EF5004C2E5D2040209CCD2017F
:1007730080C6D20080C0D20280BCD2D580BAD20556
:1007830080B47F201206CE2002077401B5650040B5
:10079300F1120693FF1206CE020707D208D2068093
:1007A30095120693FB120693FA120693F94A4B70BD
:1007B3000679C37A0A7BFF20022EE565602A7E0054
:1007C3008E827583001205AF60060EEE656670F0CB
:1007D300C2D5EBC0E0EAC0E0E9C0E0EE120A2CD0DB
:1007E300E0F9D0E0FAD0E0FB120596FF60AAEBC077
:1007F300E0EAC0E0E9C0E01206CED0E02401F9D07F
:10080300E03400FAD0E0FBE5660460DCD566D9800D
:1008130087D20280A2120A0F60F7E5667001041204
:1008230003F4A966600DE566600914F566120AB65D
:10083300EF60F3EA30E702F404C3995077EAF42552
:10084300660430E701E404F566800D120A0F60C107
:10085300EA056625661203F4EA7863F630E701E4F5
:10086300256604D5660420050114120A2CE4C0E0B1
:10087300120AB67863E6601320E70714F61206B689
:10088300802204F6D0E014C0E07F001206B6E566CD
:1008930060071206AD1566800B3005031206ADD056
:1008A300E0020707D0E00480C5120A0F60A0E566E6
:1008B300041203F47863EAF6E56620050260010496
:0508C3002404120A2CC0
:1008C80074FF04C0E0120AB61206B6E566200502F7
:1008D80060031206ADD0E0B566E87F451206C07821
:1008E80063E67F2B30E7047F2DF404C0E01206CEC8
:1008F800D0E075F00A84C0F01206B7D0E01206B74F
:10090800020707791080027908C206C2088008D257
:10091800D5790A8004790AC2D5E566047002F566BD
:10092800E4FAFDFEFF120693FC7B08200113120671
:1009380093FD7B1030000A120693FE120693FF7B8C
:1009480020EC3382D592D55013C3E43000069FFFC4
:10095800E49EFEE42001039DFDE49CFCE4CBF8C288
:1009680001EC700CCFCECDCCE824F8F870F38017EA
:10097800C3EF33FFEE33FEED33FDEC33FCEB33FB1B
:10098800994002FB0FD8E9EB300105F8D0E0C448E4
:10099800B201C0E00AEC4D4E4F78207B0070C2EAED
:1009A800B5660040BCC0E0120A2ED0F0D0E02001AD
:1009B80004C4C0E0C4B201C0F01206B7D0F0D5F04C
:1009C800EB02070712064007A453090B5807754C9A
:1009D800077142090F4F091744091749078A430944
:1009E8001D55084E4608AC450818470AE3500779D4
:1009F8002D077D2E07A02B078123079E200ACC2ACE
:100A080007394800000798E566B4FF0375660612C3
:100A18000693FC120693FD120693FE120693FF78C6
:100A28005C020423790AA2D5200314300509B91001
:100A3800020404B9080104A2D520060250010420CA
:100A480002689202B565005034C0E07F2030031977
:100A58007F30A20272067205500F120A85C202C2C6
:100A680006C205C2087F30800F300503E9C0E012D6
:100A780006CE300503D0E0F9D0E0B565CC300517D7
:100A88007F30B9100C1206CE7F583004077F78806B
:100A980003B908031206CE3002057F2D0206CE7F69
:100AA800202008F87F2B2006F322920280CF7F00B7
:100AB800B407005005245CF8E6FF22286E756C6CBC
:100AC8002900D2011206933001F8C201786530D5A9
:100AD8000108F60207392D5043495812069324039A
:100AE800B405004001E4900ADE931206BF743A127E
:0A0AF80006BFD20375650402090B66
:1003AA00E9D2E7C933E833F892D5EDD2E7CD33EC99
:0703BA0033FC5002B2D52212
:1003C100EC30E7100FBF000C0EBE00080DBD00049D
:1003D1000BEB6014A2D5EB13FCED92E7FD2274FF49
:1003E100FCFDFEFF22E480F8A2D574FF13FC7D80A2
:0303F100E480EFB6
:1003F400F920E72824F950037907E4F42402FB18D0
:10040400DBFDE624FB5014E9600DE4F618E604F67F
:0F041400B40A08E4F6D9F57401F60A22C2D5221B
:10042300ED33EC3392D5FA602AB4FF33EDC2E77BA8
:10043300FF60067A047948E4227A04795120D504CE
:100443007A04794C224E614E002B494E46002D49C9
:100453004E4600E47A08F608DAFC7B00740722E8CB
:10046300C0E0ECC0E0EDC0E0EEC0E0EFC0E0EA7554
:10047300F010A4CAABF075F04DA42BFBE435F0FCEF
:10048300EA2410FAEB34C5FBEC34D9FCEDC2E7FFE8
:1004930075F056A4F42411C5F0F434C58FF0A42AE2
:1004A300E5F03BE43CF620E714120556D0E0FFD01C
:1004B300E0FED0E0FDD0E0FC12021F8014F4041231
:1004C3000556D0E0FFD0E0FED0E0FDD0E0FC120105
:1004D30016D0E0F8E6FAEDD2E7CD33EC332482FB15
:1004E300E4C3CF33CFCE33CECD33CD33DBF37B0772
:1004F30075F00A846004F6081B0AE5F0F6088FF02D
:10050300740AA4FFACF08EF0740AA42CFEACF05075
:10051300010C8DF0740AA42CFDE435F0F608DBDE43
:0305230074072238
:100526003F8000004120000042C80000447A0000DD
:10053600461C400047C35000497424004B1896805F
:100546004CBEBC205A0E1BCA6753C21C749DC5AE56
:10055600FB60065407601C2323120584EB543860A5
:100566000912057012057F120116ECF8EDF9EEFA84
:10057600EFCB22EB12057F80F1543803241C900543
:1005860026FE93FC0EEE93FD0EEE930ECE93FF2207
:03000000020E737A
:0C0E7300787FE4F6D8FD758168020EBAA5
:10059600BB010689828A83E0225002E722BBFE0263
:0905A600E32289828A83E4932296
:1005AF00BB010CE58229F582E5833AF583E0225001
:1005BF0006E92582F8E622BBFE06E92582F8E2224B
:0D05CF00E58229F582E5833AF583E4932265
:1005DC00BB010689828A83F0225002F722BBFE01FE
:0205EC00F322F8
:1005EE00F8BB010DE58229F582E5833AF583E8F043
:1005FE00225006E92582C8F622BBFE05E92582C8EF
:02060E00F222D6
:10061000EF8DF0A4A8F0CF8CF0A428CE8DF0A42EFE
:02062000FE22B8
:0E062200C3E49FFFE49EFEE49DFDE49CFC22E9
:10063000FAE6FB0808E6F925F0F618E6CA3AF622CB
:10064000D083D082F8E4937012740193700DA3A349
:1006500093F8740193F5828883E47374029368605D
:06066000EFA3A3A380DF5D
:10066600D083D082F8E4937012740193700DA3A323
:1006760093F8740193F5828883E473740293B5F05A
:0D068600067403936860E9A3A3A3A380D8C2
:10117500EFB40A07740D121180740A309811A899FA
:10118500B8130CC2983098FDA899C298B811F630DA
:0711950099FDC299F59922B2
:100E7F0002127BE493A3F8E493A34003F68001F2FC
:100E8F0008DFF48029E493A3F85407240CC8C33374
:100E9F00C4540F4420C8834004F456800146F6DF43
:100EAF00E4800B01020408102040809011C2E47E00
:100EBF00019360BCA3FF543F30E509541FFEE49338
:100ECF00A360010ECF54C025E060A840B8E493A3FF
:100EDF00FAE493A3F8E493A3C8C582C8CAC583CA2A
:100EEF00F0A3C8C582C8CAC583CADFE9DEE780BEE2
:0111E300000B
:00000001FF
