:0B08D200C0F9A4B0999282F88090FF5A
:1007ED00043581422418043918244281C1000124A2
:1007FD0001012E00013200012F0001250001210011
:02080D00C10127
:0B08AE00E5B0F4FF65215FF5258F2108
:0108B900221C
:0E08900000007F017ED87D23DDFEDEFCDFFA56
:01089E002237
:1008100075A0807580FFE4F5A075A0A0F580F5A017
:1008200075A0C07580FFF5A075A0E07580FFF5A0EC
:0108300022A5
:10087B00438E805389F0758AAE758CFBC28DD28CFA
:05088B00D2A9D2AF224A
:10000E00120810E4F508C3E5089404748094805037
:10001E005AAF081207C78F09E5082404FF1207C755
:10002E008F0AE509FEAD0AEDFFC39490EE6480944D
:10003E00814028D3EF94B0EE64809484501DE50A7D
:10004E0075F06484E5F07013E509FEEDFFE5082513
:10005E00E02426F8A60608A607800CE50825E0246D
:10006E0026F876010876900508809B1208901208F3
:10007E007BC2AF7F03120773AC07E41203F77B3327
:10008E007A337923784012035012042B8F22D2AF89
:10009E00120890AF227E00D3EF944B748094804070
:1000AE0005752304802EC3EF9419EE64809480505E
:1000BE0005752301801EC3EF9419EE648094804071
:1000CE0010D3EF9432EE6480948050057523028035
:1000DE00037523032002030201EAC2021208AEE5F1
:1000EE002530E340AF327E00EF6401700DD3E5247E
:1000FE0094017480948040021524EF64024E7024A3
:10010E00E52425E02424F8E6FE08E6D39490EE9448
:10011E00014011E52425E02424F808749C26F618E5
:10012E0074FF36F6E52530E23FAF327E00EF640114
:10013E00700DC3E52494047480948050020524EF5E
:10014E0064024E7023E52425E02424F8E6FE08E63A
:10015E00C394B0EE94045010E52425E02424F8084E
:10016E00746426F618E436F6E52530E154E52F7072
:10017E000B752401752F0175320180450532E5326C
:10018E006403703DF532F52FF508C3E50894047449
:10019E00809480502CE50825E02426F8E6FC08E63D
:1001AE00FDECF5098D0AC2AFFDAF08120831E50866
:1001BE002404FFAD0A120831D2AF12089005088050
:1001CE00C9E52530E005B200752401E532700DE574
:1001DE002130E305752F028003E4F52FE52F64012E
:1001EE0060030202D47541FF200137E532640170CD
:1001FE000B753EFF753FFF7540FF8034E53264029C
:10020E0060030202F7753EBFE5249008D293F53FD6
:10021E007540BF7542FF7543FF7544FF7545FF027C
:10022E0002F7753EBFE5249008D293F53F7540BFA7
:10023E00E52425E02424F8E6FA08E6FB7C037DE8B5
:10024E00FFAE021204BE74D22FF58274083EF583FF
:10025E00E493F5427C037DE8AF03AE021204BE7E4A
:10026E00007F64CFCDCFCECCCE1204BE74D22FF58C
:10027E008274083EF583E493F543E52425E02424B7
:10028E00F8E6FA08E6FB7C007D64FFAE021204BEBF
:10029E007E007F0ACFCDCFCECCCE1204BE74D22F2D
:1002AE00F58274083EF583E493F5447C007D0AAF35
:1002BE0003AE021204BE74D22DF58274083CF5838F
:1002CE00E493F5458023E52F6402701D7546FF7596
:1002DE0047FF7548FF7549FF754AFF754BFF754C13
:1002EE00BFE5239008D293F54DAF247E00EF640155
:1002FE00700EAD2EA80504088002C333D8FC8024EE
:10030E00EF64024E700FAF2EA8077480088002C3F0
:10031E0013D8FC800FAF247E00EF6403700C74358D
:10032E00252EF8E6F4F54E02007FEF64044E6003CE
:0F033E0002007F7439252EF8E6F4F54E02007F99
:03000B00020521CA
:10052100C0E0C0F0C0D075D000C000C004C005C09C
:1005310006C0070550E55064647004F550D202AF5F
:100541002F7E00EF6052054FE54F64147062F54F46
:1005510075A0C0AD3DA80504088002C333D8FCF5E1
:100561008075A000EF64014E700E75A0E0743E2509
:100571003DF8E6F58075A000E52F6402700E75A0C8
:10058100E07446253DF8E6F58075A000053DE53DA2
:100591006408701CF53D80187580FF75A0C07580DA
:1005A100FF75A00075A0E07580FF75A000754F0074
:1005B100200003020668E53260030206680534E59F
:1005C1003470020533E52425E02424F8E6FE08E62C
:1005D100FF7C007D0A1204ACEF65347003EE6533D5
:1005E100705BF533F534AF24FEEF6401700F052E17
:1005F100E52E64087047F52E7524028040EF6402F1
:100601004E700F052EE52E64087032F52E75240309
:10061100802BAF247E00EF6403700F052EE52E645E
:1006210004701AF52E7524048013EF64044E700DC6
:10063100052EE52E64047005F52E7524010551E59E
:100641005164647002F551E551C39522500B854EFA
:100651008075A080854E8080097580FF75A08075AA
:1006610080FF75A00080157580FF75A0807580FFE3
:1006710075A000753300753400755100E532601ABC
:100681000531E53170020530B44015E530B41F1075
:10069100753000753100B20180067530007531008A
:1006A100D007D006D005D004D000D0D0D0F0D0E013
:0106B1003216
:0408BA00D2A07F0148
:0808BE0000AE071FEE70F922E5
:0F089F00D2A11208BAC2A17F011208BEC2A022C4
:0C08C600C2A11208BAD2A17F010208BE34
:10086400C2A0A20392A17F011208BE1208BAC2A0BC
:07087400D2A17F010208BEC2
:08084B0012089F7FA012073E76
:100853001208BAA2A19204C2A07F011208BEA20488
:010863002272
:02073E00AD0705
:10074000E4FCECC39408748094805024C2A07F0120
:100750001208BEED30E704D2A18002C2A17F0112CF
:1007600008BED2A0ED25E0FD7F011208BE0C80D2AC
:02077000C2A025
:010772002264
:1007A100E4FCECC394087480948050171208BAEDED
:1007B10025E0FD30A103430501C2A07F011208BE5F
:0507C1000C80DFAF0514
:0107C6002210
:10083100AB05AA0712084BAF0212073E120853AFCD
:0A0841000312073E1208530208C616
:0207C700AB077E
:1007C90012084BAF0312073E1208531208C612084B
:1007D9009F7FA112073E1208531207A1AD07120805
:0307E900C6AF0593
:0107EC0022EA
:02077300AB07D2
:1007750012089F7F9012073E120853AF0312073EDF
:100785001208531208C612089F7F9112073E1208DD
:0B079500531207A1AD071208C6AF0504
:0107A0002236
:10034D000204A1EC5D046005E859047003020497F2
:10035D00120462580460F6EC4860F2EC7004FDFE85
:10036D00FF22C860DB2481C85009C3986002500683
:10037D0002049E9850CAF582E9294B4A7005AB825A
:10038D0002048D75F0007C1A7880C3EF9BEE9AED18
:10039D0099400DC3EF9BFFEE9AFEED99FDE842F0FB
:1003AD00DC23ACF0D0E0FFD0E0FED0E0FDAB82204E
:1003BD00E7101BEB60BAEC2CFCEF33FFEE33FEEDD8
:1003CD0033FD020479E803F830E705C0F075F0005D
:1003DD00EF2FFFEE33FEED33FD40B830E7C280AABC
:1003ED0075F020800E75F010800575F0087D007E8B
:1003FD00007F003392D530D503120513EC33401036
:10040D00EF33FFEE33FEED33FDEC33FCD5F0ED2293
:0E041D00E5F0247EA2D513CC92E7CDCEFF22CF
:10042B00EDD2E7CD33EC3392D524814006E4FFFEC9
:10043B00FDFC22FCE4CFCECDCC24E0501174FF8028
:10044B00EDC3CC13CCCD13CDCE13CECF13CF0470C5
:07045B00F030D5DE020513AD
:10046200E9D2E7C933E833F892D5EDD2E7CD33ECE0
:0704720033FC5002B2D52259
:10047900EC30E7100FBF000C0EBE00080DBD0004E4
:100489000BEB6014A2D5EB13FCED92E7FD2274FF90
:10049900FCFDFEFF22E480F8A2D574FF13FC7D80E9
:0304A900E480EFFD
:030000000206B243
:0C06B200787FE4F6D8FD7581510206F94E
:1004AC00EF8DF0A4A8F0CF8CF0A428CE8DF0A42E64
:0204BC00FE221E
:1004BE00BC000BBE0029EF8DF084FFADF022E4CC22
:1004CE00F875F008EF2FFFEE33FEEC33FCEE9DECEB
:1004DE00984005FCEE9DFE0FD5F0E9E4CEFD22ED31
:1004EE00F8F5F0EE8420D21CFEADF075F008EF2F7B
:1004FE00FFED33FD4007985006D5F0F222C398FD6C
:05050E000FD5F0EA2208
:0E051300C3E49FFFE49EFEE49DFDE49CFC22F9
:1006BE0002000EE493A3F8E493A34003F68001F244
:1006CE0008DFF48029E493A3F85407240CC8C3333D
:1006DE00C4540F4420C8834004F456800146F6DF0C
:1006EE00E4800B01020408102040809007EDE47EA8
:1006FE00019360BCA3FF543F30E509541FFEE49301
:10070E00A360010ECF54C025E060A840B8E493A3C7
:10071E00FAE493A3F8E493A3C8C582C8CAC583CAF2
:10072E00F0A3C8C582C8CAC583CADFE9DEE780BEAA
:01080F0000E8
:00000001FF
