:100AB3002D2531642D2025303464002D342D202044
:060AC300253032644300FF
:100A8400013900013800013700C109014400014364
:080A94000002220000013A00FB
:100A9D00120A33120AC9120ADCD2AF120713120856
:060AAD00A912095880F5B2
:03001B0002067268
:10067200C0E0C0F0C083C082C0D075D000C000C04E
:1006820001C002C003C004C005C006C007052AE5B8
:100692002A70020529640A45297004F529F52A05FC
:1006A20026E52670020525FFAE25BE0109BFF40628
:1006B2007525007526000523E52370020522FFAE8D
:1006C20022BE031DBFE81A752200752300E53A60B9
:1006D20004153A800C1537E537D394C840037537B3
:1006E200007B007A00793BAD3912091A0539E539E8
:1006F200B40803753900D007D006D005D004D00362
:10070200D002D001D000D0D0D082D083D0F0D0E0BF
:0107120032B4
:03000B00020834B4
:10083400C0E0C0F0C083C082C0D075D000C000C08A
:1008440001C002C003C004C005C006C007E537608C
:100854002F0544E544B40A08754400D2B44345F86E
:10086400E53814600C14600E2402700D7543028088
:10087400087543038003754307E544B543078000C7
:10088400C2B4534507AF45120AEFD007D006D005CE
:10089400D004D003D002D001D000D0D0D082D083F5
:0508A400D0F0D0E032AD
:10071300E52A452960030207A7752900752A0112F6
:10072300048E8F24E52865245524F5278524282461
:10073300FB601624FD60681460612405706605384B
:10074300E5386403705EF53822743C2537F537C30A
:10075300943C40047F0180027F00E537C3947850C6
:10076300047E0180027E00EE5F600375373CE5374F
:10077300C3947840047F0180027F00E537C394B4BB
:1007830050047E0180027E00EE5F6003753778E5DA
:1007930037B4B403E4F537753A0122E4F53722A2FE
:0507A30009B3920922D8
:1008A900E5264525706A75250075260120091B7501
:1008B9000BFF750C0A750DB3E5382401F50FE43308
:1008C900F50E751000853711802B1209A8EEC4F8B2
:1008D90054F0C868F52BEFC4540F48F52CC3943273
:1008E900E52B94005018750BFF750C0A750DBE8524
:1008F9002B0E852C0F7B007A00792D12007A750B4F
:1009090000750C00750D3B7B007A00792D12037A76
:0109190022BB
:10095800E5376021E53814600E146012240270181F
:100968004345015345F9224345025345FA2243457D
:09097800045345FC225345F8220A
:100A33007580FFE5A0541F4480F5A053A01FE4F583
:0D0A430080E5A0541F44A0F5A053A01F2281
:10048E00C2C4D2C2D2B5D2B4E5B0540F7E00D2C42B
:10049E00C2C2D2B5D2B4C4F8540FC868FFEEC45469
:1004AE00F048FEE5B0540FFDEF4DD2C4D2C2C2B536
:1004BE00D2B4C4F8540FC868FFEEC454F048FEE539
:1004CE00B0540FFDEF4DD2C4D2C2D2B5C2B4C4F8EF
:1004DE00540FC868FFEEC454F048FEE5B0540FFD4B
:1004EE00EF4DF4FFEEF4FEEF8EF012060A058A00D1
:1004FE00010585000205800004057B0008057600D5
:10050E001005710020056C00400567008005620132
:10051E0000055D02000558040005530800054E1045
:10052E00000549200005444000053F8000000005FD
:10053E008F750804804E750805804975080680443D
:10054E00750807803F750808803A7508098035756B
:10055E00080A803075080B802B75080C80267508EC
:10056E000D802175080E801C75080F8017750810F8
:10057E008012750811800D75081280087508138099
:06058E0003E4F508AF08CC
:010594002244
:1009F60020B0047F07801720B1047F06801020B244
:0E0A0600047F05800920B3047F048002E4FF12
:010A140022BF
:100AEF00EFF4F580E5A0541F4480F5A053A01F221A
:040A50007F057E00A0
:100A5400EF1FAA0670011E4A600BE4FDEDC3940C5F
:050A640050EE0D80F7CB
:010A6900226A
:020A1500A9072F
:100A1700E4FBC294E9139294120A50D294E9C313E7
:0C0A2700F90BBB08ED7F057E00020A54AD
:100A6A00E4FBC294ECC313FCD29430940343048095
:090A7A00120A500BBB08EBAF049B
:010A83002250
:10098100C200D2947F0C7E00120A54C2947F507E22
:1009910000120A54D2947F0A7E00120A54A2949241
:0609A10000120A50A20042
:0109A700222D
:1009A8001209817FCC120A157F44120A1512098197
:1009B8007FCC120A157FBE120A15120A6AA90712FD
:0609C8000A6AEFFEE9FFE0
:0109CE002206
:06037A008B088A09890AC4
:10038000E4F50EF50FF50EE50ED3940740030204D5
:100390008DAB08AA09A90A850F82758300120595FD
:1003A0001205E4045A2004552D03EC3003F1310307
:1003B000F63203FB33040034040535040A36040F17
:1003C00037041438041939041E4104234204284315
:1003D000042D44043245043746043C4804414C048F
:1003E000464E044B500450550000045A7510C0800E
:1003F0006C7510F980677510A480627510B0805D0F
:1004000075109980587510928053751082804E75C2
:1004100010F880497510808044751090803F7510E9
:1004200088803A75108380357510C680307510A1AC
:10043000802B751086802675108E8021751089801E
:100440001C7510C780177510C8801275108C800D30
:100450007510C180087510BF80037510FF850F826D
:10046000758300A3AB08AA09A90A120595B42E0545
:1004700053107F050FAB0BAA0CA90D850E82758357
:0D04800000E5101205C2050E050F020387EE
:01048D00224C
:10091A007401A805088002C333D8FCF580E5A05409
:10092A001F44C0F5A053A01F7580FFE5A0541F44C3
:10093A00E0F5A053A01FAF058F82758300120595BD
:0E094A00F580E5A0541F44E0F5A053A01F2245
:100AC900538EBF53890F758B18758DFCC28FD28ECB
:030AD900D2AB227B
:100ADC00538E7F5389F0758A9C758CFFC28DD28C96
:030AEC00D2A9226A
:100AFF005389F0438905E4F58AF58CC28DD28C2297
:030000000207A84C
:0C07A800787FE4F6D8FD7581450207EF6C
:10059500BB010CE58229F582E5833AF583E022501B
:1005A50006E92582F8E622BBFE06E92582F8E22265
:0D05B500E58229F582E5833AF583E493227F
:1005C200F8BB010DE58229F582E5833AF583E8F06F
:1005D200225006E92582C8F622BBFE05E92582C81B
:0205E200F22203
:1005E400D083D082F8E4937012740193700DA3A3A6
:1005F40093F8740193F5828883E4737402936860BA
:06060400EFA3A3A380DFB9
:10060A00D083D082F8E4937012740193700DA3A37F
:10061A0093F8740193F5828883E473740293B5F0B6
:0D062A00067403936860E9A3A3A3A380D81E
:10001E00E517240BF8E60517227808300702780B4F
:10002E00E475F0011206620206372000EB7F2ED235
:10003E00008018EF540F2490D43440D4FF30040BBA
:10004E00EF24BFB41A0050032461FFE518600215B7
:10005E0018051BE51B7002051A30070D7808E475AC
:10006E00F001120662EF0206500209CF7403D207A6
:10007E008003E4C207F5178B088A09890AE4F5188C
:10008E00F51AF51BE51860077F2012005980F575EB
:10009E0019FFC201C200C202C203C205C206C208D3
:1000AE00120027FF700D3007057F0012006AAF1B8C
:1000BE00AE1A22B4255FC2D5C204120027FF24D087
:1000CE00B40A00501A75F00A781830D50508B6FF34
:1000DE000106C6A426F620D5047002D20380D924C8
:1000EE00CFB41A00EF5004C2E5D20402026AD20164
:1000FE0080C6D20080C0D20280BCD2D580BAD205D2
:10010E0080B47F201200592002077401B5180040F8
:10011E00F112001EFF120059020092D208D2068080
:10012E009512001EFB12001EFA12001EF94A4B70A9
:10013E0006793B7A037BFF20022EE518602A7E00AB
:10014E008E8275830012059560060EEE651970F0AD
:10015E00C2D5EBC0E0EAC0E0E9C0E0EE1202B1D0D9
:10016E00E0F9D0E0FAD0E0FB120637FF60AAEBC050
:10017E00E0EAC0E0E9C0E0120059D0E02401F9D075
:10018E00E03400FAD0E0FBE5190460DCD519D98023
:10019E00877BFF7A0279ADD202809C79108002793A
:1001AE0008C206C2088008D2D5790A8004790AC22C
:1001BE00D5E519047002F519E4FAFDFEFF12001ED2
:1001CE00FC7B0820011312001EFD7B1030000A126A
:1001DE00001EFE12001EFF7B20EC3382D592D550FE
:1001EE0013C3E43000069FFFE49EFEE42001039D4E
:1001FE00FDE49CFCE4CBF8C201EC700CCFCECDCC70
:10020E00E824F8F870F38017C3EF33FFEE33FEEDFA
:10021E0033FDEC33FCEB33FB994002FB0FD8E9EBDB
:10022E00300105F8D0E0C448B201C0E00AEC4D4EF2
:10023E004F78207B0070C2EAB5190040BCC0E012B6
:10024E0002B3D0F0D0E0200104C4C0E0C4B201C0BB
:10025E00F0120042D0F0D5F0EB0200921205E4014C
:10026E002F5301A95801004C00FC4201AD4F01B5BE
:0F027E004401B54901154301BB55019F46019F3E
:10028D0045019F47035B5001042D01082E012B2BC7
:10029D00010C2301292003442A00C4480000012336
:1002AD003F3F3F00790AA2D5200314300509B9104C
:1002BD00020404B9080104A2D5200602500104204D
:1002CD0002689202B518005034C0E07F2030031947
:1002DD007F30A20272067205500F12030AC202C2CB
:1002ED0006C205C2087F30800F300503E9C0E01259
:1002FD000059300503D0E0F9D0E0B518CC30051722
:10030D007F30B9100C1200597F583004077F788068
:10031D0003B908031200593002057F2D0200597FE1
:10032D00202008F87F2B2006F322920280CF286E22
:10033D00756C6C2900D20112001E3001F8C20178D3
:10034D001830D50108F60200C42D5043495812004B
:10035D001E2403B405004001E49003569312004A95
:0D036D00743A12004AD2037518040201A967
:1007B400020A9DE493A3F8E493A34003F68001F2B4
:1007C40008DFF48029E493A3F85407240CC8C33346
:1007D400C4540F4420C8834004F456800146F6DF15
:1007E400E4800B0102040810204080900A84E47E17
:1007F400019360BCA3FF543F30E509541FFEE4930A
:10080400A360010ECF54C025E060A840B8E493A3D0
:10081400FAE493A3F8E493A3C8C582C8CAC583CAFB
:10082400F0A3C8C582C8CAC583CADFE9DEE780BEB3
:010A9C000059
:10063700BB010689828A83E0225002E722BBFE02C1
:09064700E32289828A83E49322F4
:10065000BB010689828A83F0225002F722BBFE0189
:02066000F32283
:10066200FAE6FB0808E6F925F0F618E6CA3AF62299
:1009CF00EFB40A07740D1209DA740A309811A89956
:1009DF00B8130CC2983098FDA899C298B811F63088
:0709EF0099FDC299F5992260
:00000001FF
