:0B043000C0F9A4B0999282F88090FF00
:0B042400C101012201012300012100A1
:0B041800E5B0F4FF65215FF5238F21A4
:0104230022B6
:0E04090000007F207E857D57DDFEDEFCDFFAE1
:0104170022C2
:1003B50075A0807580FFE4F5A075A0A0F580F5A077
:1003C50075A0C07580FFF5A075A0E07580FFF5A04C
:0103D5002205
:1003F400438E805389F0758AAE758CFBC28DD28C86
:05040400D2A9D2AF22D5
:10000E001203B51203161204091203F4300241C290
:10001E0002120418E52330E30B0522E52264047076
:10002E0003752201E52330E216C3E52594D3E524BA
:10003E009426500B743C2525F525E43524F524E54E
:10004E002330E105E4F524F525E52330E002B20185
:10005E00D3E5259400E52494004004D2008002C22A
:10006E0000AF227E00EF64017008752602753AFE1D
:10007E00801AEF64024E7008752603753AFD800CE7
:10008E00EF64034E7006752607753AFB30010302C6
:10009E0001327529BF752BBFE52290043093F52AE6
:1000AE00752CFFAE24AF257C037DE81202C174309F
:1000BE002FF58274043EF583E493F52DAE24AF251F
:1000CE007C037DE81202C17E007F64CFCDCFCECC03
:1000DE00CE1202C174302FF58274043EF583E49380
:1000EE00F52EAE24AF257C007D641202C17E007F0A
:1000FE000ACFCDCFCECCCE1202C174302FF5827482
:10010E00043EF583E493F52FAE24AF257C007D0AE3
:10011E001202C174302DF58274043CF583E493F51C
:10012E003002001A20010302001A1203167532BFA4
:10013E007534BF7535FF7536FF900434E493F5338F
:10014E00EF75F00A8490043093F537EF75F00A845A
:0B015E00E5F093F5387539C602001A71
:03000B0002016986
:10016900C0E0C0D075D000C000C007053C053BE524
:100179003C64647004F53CD202E53B64147042F5BA
:100189003B75A0C0AF31A80704088002C333D8FC6F
:10019900F58075A00020010E75A0E074292531F8BD
:1001A900E6F58075A00030010E75A0E074322531A6
:1001B900F8E6F58075A0000531E53164087002F5AF
:1001C900313000200528E52870020527B4101BE509
:1001D90027B42716752700752800E5251525700A07
:1001E90015248006752700752800300027053DE590
:1001F9003D640A7002F53DE53DC39526500B853AED
:100209008075A080853A8080177580FF75A08075FC
:1002190080FF800C753D007580FF75A0807580FF9B
:0C02290075A000D007D000D0D0D0E0328B
:0403D6007F057E0021
:1003DA00EF1FAA0670011E4A600FE4FDEDC3940CDC
:0903EA007480948050EA0D80F348
:0103F30022E7
:02034400A90707
:10034600E4FBEBC39408748094805012C294E913C2
:1003560092941203D6D294E9C313F90B80E47F0575
:050366007E000203DA35
:10039200E4FBEBC39408748094805014C294ECC3C1
:1003A20013FCD2943094034304801203D60B80E2F0
:0203B200AF0496
:0103B4002226
:10036B00C203D2947F0C7E001203DAC2947F507EBC
:10037B00001203DAD2947F0A7E001203DAA294925F
:06038B00031203D6A203D9
:010391002249
:1003160012036B7FCC1203447F4412034412036B17
:100326007FCC1203447FBE120344120392A9071224
:0D0336000392EFC454F0FFE9C4540F4FFFD1
:010343002297
:03000000020235C4
:0C023500787FE4F6D8FD75813D02027C64
:1002C100BC000BBE0029EF8DF084FFADF022E4CC21
:1002D100F875F008EF2FFFEE33FEEC33FCEE9DECEA
:1002E100984005FCEE9DFE0FD5F0E9E4CEFD22ED30
:1002F100F8F5F0EE8420D21CFEADF075F008EF2F7A
:10030100FFED33FD4007985006D5F0F222C398FD6A
:050311000FD5F0EA2207
:1002410002000EE493A3F8E493A34003F68001F2C5
:1002510008DFF48029E493A3F85407240CC8C333BE
:10026100C4540F4420C8834004F456800146F6DF8D
:10027100E4800B0102040810204080900424E47EF5
:10028100019360BCA3FF543F30E509541FFEE49382
:10029100A360010ECF54C025E060A840B8E493A349
:1002A100FAE493A3F8E493A3C8C582C8CAC583CA74
:1002B100F0A3C8C582C8CAC583CADFE9DEE780BE2C
:01042F0000CC
:00000001FF
