:10123600552020202025332E326600462025366490
:0A124600002020202020202020009E
:1011FF00013D00043700000000C109023B0000C19F
:0B120F008CC18AC10B0423000000000A
:101250001211E212127CD2AF1212A2121069120FF6
:061260009D120E6280F5F4
:03001B00020DA231
:100DA200C0E0C0F0C083C082C0D075D000C000C017
:100DB20001C002C003C004C005C006C007E53A2452
:100DC20001F53AE43539F539E43538F538E43537A3
:100DD200F537052CE52C7002052B640A452B7004AF
:100DE200F52BF52C0528E52870020527FFAE27BE56
:100DF2000109BFF406752700752800E47BE87A0331
:100E0200F9F8AF3AAE39AD38AC37120615AC00ADD1
:100E120001AE02AF03EC4D4E4F7010AF8CEFAD8AB6
:100E2200F53BEDF53C758A00758C007B007A007904
:100E32003EAD3D1210AB053DE53DB40803753D00E6
:100E4200AF461212B2D007D006D005D004D003D0DC
:100E520002D001D000D0D0D082D083D0F0D0E03206
:10106900E52C452B703B752B00752C011211A68FB1
:1010790022E52A65225522F52985222A24FB6016B4
:1010890014601914600A24037017A209B392092283
:10109900A20CB3920C22A20BB3920B22A20AB39216
:0210A9000A2219
:100F9D00E52845277078752700752801200B047FFB
:100FAD006680057F43121180121266300C3C2009B9
:100FBD00287F43121180AC07E4120141E4FBFA795A
:100FCD004C78421200218F508E4F8D4E8C4D754AAC
:100FDD00FF754B12754C36801A754AFF754B12759D
:100FED004C41853B4D853C4E8009754AFF754B1232
:100FFD00754C477B007A00792D120774754A007580
:0F100D004B00754C3E7B007A00792D120B872229
:100E6200200A03020F0D2009085346FC4346018065
:100E7200065346FC4346027F43121180AC07E4123C
:100E82000141E4FBFA794C78421200218F268E252B
:100E92008D248C23E4FFFE7DC07C3FAB26AA25A9CE
:100EA20024A8231200BE4014E4FFFE7D207C40AB48
:100EB20026AA25A924A8231200BE4014E4FFFE7D21
:100EC200607C40AB26AA25A924A8231200BE4005B7
:100ED20043460480035346FBD3E53C94E8E53B9448
:100EE20003400AE53C9488E53B9413400BD3E53C70
:100EF2009410E53B9427400543460880035346F788
:0F0F0200300B04434610225346EF22E4F54622FB
:10127C00538EBF53890F758B18758DFCC28FD28E10
:03128C00D2AB22C0
:10128F00538E7F5389F0758A9C758CFFC28DD28CDB
:03129F00D2A922AF
:1012A2005389F0438905E4F58AF58CC28DD28C22EC
:0412D100D2A07F0523
:0812D50000AE071FEE70F922C4
:0F12C200D2A11212D1C2A17F051212D5C2A02251
:0C12DD00C2A11212D1D2A17F050212D5CD
:10000300C2A0A20092A17F051212D51212D1C2A0E2
:07001300D2A17F050212D506
:0A121B00AB071212C27F9012112DD2
:101225001212D1A2A19200C2A07F051212D5A2006E
:011235002296
:07112600AB051212C27FA00D
:02112D00AD070C
:10112F00E4FCC2A07F051212D5ED30E704D2A180F6
:10113F0002C2A17F051212D5D2A0ED25E0FD7F05D9
:09114F001212D50CBC08DBC2A091
:011158002274
:1011C500E4FC1212D1ED25E0FD30A103430501C277
:0C11D500A07F051212D50CBC08E8AF0585
:0111E10022EB
:1011800012121BAF0312112D1212251212C27F91DF
:1011900012112D1212251211C5AD07D20012000333
:0511A0001212DDAF0595
:0111A5002227
:1012660012121B7F4112112D121225AF0312112DDE
:061276001212250212DD38
:1010E9008B088A09890A121126121225AF031211D7
:1010F9002D121225AF0C150CEF601FAB08050AE580
:101109000AAA097002050914F912055FFF12112DC7
:0D1119001212257FC81212D580DA0212DDF5
:10101C008B0D8A0E890F121126121225AF03121195
:10102C002D1212251212C27FA112112D121225AFF0
:10103C00111511EF60241211C5AB0D050FE50FAAA8
:10104C000E7002050E14F9EF1205A5E5116004C22D
:0D105C00008002D20012000380D50212DDD8
:1011E2007580FFE5A0541F4480F5A053A01FE4F5CD
:0D11F20080E5A0541F44A0F5A053A01F22CB
:100C9B00C2C4D2C2D2B5D2B4E5B0540F7E00D2C416
:100CAB00C2C2D2B5D2B4C4F8540FC868FFEEC45454
:100CBB00F048FEE5B0540FFDEF4DD2C4D2C2C2B521
:100CCB00D2B4C4F8540FC868FFEEC454F048FEE524
:100CDB00B0540FFDEF4DD2C4D2C2D2B5C2B4C4F8DA
:100CEB00540FC868FFEEC454F048FEE5B0540FFD36
:100CFB00EF4DF4FFEEF4FEEF8EF01206EB0D9700C6
:100D0B00010D9200020D8D00040D8800080D83006B
:100D1B00100D7E00200D7900400D7400800D6F01C9
:100D2B00000D6A02000D6504000D6008000D5B10DC
:100D3B00000D5620000D5140000D4C800000000DA1
:100D4B009C751204804E75120580497512068044FD
:100D5B00751207803F751208803A75120980357538
:100D6B00120A803075120B802B75120C80267512AF
:100D7B000D802175120E801C75120F8017751210C5
:100D8B008012751211800D75121280087512138066
:060D9B0003E4F512AF12A3
:010DA100222F
:1011A60020B0047F07801720B1047F06801020B28C
:0E11B600047F05800920B3047F048002E4FF5B
:0111C4002208
:1012B200EFF4F580E5A0541F4480F5A053A01F224F
:060B87008B478A488949F2
:100B8D00E4F54DF54EF54DE54DD394074003020CBC
:100B9D009AAB47AA48A949854E82758300120578FC
:100BAD001206C50C67200C622D0BF9300BFE310CB3
:100BBD0003320C08330C0D340C12350C17360C1C8B
:100BCD00370C21380C26390C2B410C30420C354397
:100BDD000C3A440C3F450C44460C49480C4E4C0C09
:100BED00534E0C58500C5D5500000C67754FC0806E
:100BFD006C754FF98067754FA48062754FB0805D3D
:100C0D00754F998058754F928053754F82804E75F0
:100C1D004FF88049754F808044754F90803F754FD8
:100C2D0088803A754F838035754FC68030754FA1DA
:100C3D00802B754F868026754F8E8021754F89804C
:100C4D001C754FC78017754FC88012754F8C800D5E
:100C5D00754FC18008754FBF8003754FFF854E825C
:100C6D00758300A3AB47AA48A949120578B42E0590
:100C7D00534F7F054EAB4AAA4BA94C854D827583C8
:0D0C8D0000E54F1205B7054D054E020B9412
:010C9A002237
:1010AB007401A805088002C333D8FCF580E5A05471
:1010BB001F44C0F5A053A01F7580FFE5A0541F442B
:1010CB00E0F5A053A01FAF058F8275830012057842
:0E10DB00F580E5A0541F44E0F5A053A01F22AD
:10001E000201B4EC5D046005E8590470030201AA04
:10002E00120175580460F6EC4860F2EC7004FDFEA7
:10003E00FF22C860DB2481C85009C39860025006B5
:10004E000201B19850CAF582E9294B4A7005AB827C
:10005E000201A075F0007C1A7880C3EF9BEE9AED3A
:10006E0099400DC3EF9BFFEE9AFEED99FDE842F02D
:10007E00DC23ACF0D0E0FFD0E0FED0E0FDAB822080
:10008E00E7101BEB60BAEC2CFCEF33FFEE33FEED0A
:10009E0033FD02018CE803F830E705C0F075F0007F
:1000AE00EF2FFFEE33FEED33FD40B830E7C280AAEE
:1000BE0074F8CC6480CCC86480C8F58204604FC3E9
:1000CE00EB9FF5F0EA9E42F0E99D42F0E89C45F088
:1000DE00603C501DE5825FFFE582D313CB5BCBF412
:1000EE002B5582FB50280ABA002409B9002008803B
:1000FE001DE5825BFBE582D313CF5FCFF4C3132FD5
:10010E005582FF50090EBE00050DBD00010CC3EB5C
:10011E009FF5F0EA9E42F0E99D42F0E89C45F060C2
:09012E0007CC4820E701B3EC22E4
:1001370075F020800E75F010800575F0087D007E43
:10014700007F003392D530D5031206A7EC33401059
:10015700EF33FFEE33FEED33FDEC33FCD5F0ED224C
:0E016700E5F0247EA2D513CC92E7CDCEFF2288
:10071800E55E244AF8E6055E227847300702784A03
:10072800E475F0011206B502055F2000EB7F2ED2BA
:10073800008018EF540F2490D43440D4FF30040BB9
:10074800EF24BFB41A0050032461FFE55F6002156F
:100758005F0562E5627002056130070D7847E47550
:10076800F0011206B5EF0205A50211597403D2076C
:100778008003E4C207F55E8B478A488949E4F55F40
:10078800F561F562E55F60077F2012075380F57514
:1007980060FFC201C200C202C203C205C206C2088B
:1007A800120721FF700D3007057F00120764AF6242
:1007B800AE6122B4255FC2D5C204120721FF24D03E
:1007C800B40A00501A75F00A785F30D50508B6FFEC
:1007D8000106C6A426F620D5047002D20380D924C7
:1007E800CFB41A00EF5004C2E5D204020A51D20174
:1007F80080C6D20080C0D20280BCD2D580BAD205D1
:1008080080B47F201207532002077401B55F0040AF
:10081800F1120718FF12075302078CD208D206807C
:1008280095120718FB120718FA120718F94A4B70A5
:100838000679487A0B7BFF20022EE55F602A7E004E
:100848008E8275830012057860060EEE656070F082
:10085800C2D5EBC0E0EAC0E0E9C0E0EE120AB1D0D0
:10086800E0F9D0E0FAD0E0FB12055FFF60AAEBC028
:10087800E0EAC0E0E9C0E0120753D0E02401F9D073
:10088800E03400FAD0E0FBE5600460DCD560D98094
:1008980087D20280A2120A9460F7E5607001041200
:1008A80001BFA960600DE560600914F560120B3B9B
:1008B800EF60F3EA30E702F404C3995077EAF425CD
:1008C800600430E701E404F560800D120A9460C109
:1008D800EA056025601201BFEA785DF630E701E4B9
:1008E800256004D5600420050114120AB1E4C0E0B3
:1008F800120B3B785DE6601320E70714F612073BFE
:10090800802204F6D0E014C0E07F0012073BE560C7
:1009180060071207321560800B300503120732D0CA
:10092800E002078CD0E00480C5120A9460A0E5605C
:10093800041201BF785DEAF6E56020050260010453
:050948002404120AB1B5
:10094D0074FF04C0E0120B3B12073BE5602005026B
:10095D006003120732D0E0B560E87F451207457895
:10096D005DE67F2B30E7047F2DF404C0E0120753C2
:10097D00D0E075F00A84C0F012073CD0E012073CBD
:10098D0002078C791080027908C206C2088008D24D
:10099D00D5790A8004790AC2D5E560047002F56044
:1009AD00E4FAFDFEFF120718FC7B08200113120765
:1009BD0018FD7B1030000A120718FE120718FF7B76
:1009CD0020EC3382D592D55013C3E43000069FFF3F
:1009DD00E49EFEE42001039DFDE49CFCE4CBF8C203
:1009ED0001EC700CCFCECDCCE824F8F870F3801765
:1009FD00C3EF33FFEE33FEED33FDEC33FCEB33FB96
:100A0D00994002FB0FD8E9EB300105F8D0E0C4485E
:100A1D00B201C0E00AEC4D4E4F78207B0070C2EA67
:100A2D00B5600040BCC0E0120AB3D0F0D0E02001A8
:100A3D0004C4C0E0C4B201C0F012073CD0F0D5F040
:100A4D00EB02078C1206C508295309905807FA4C7A
:100A5D0007F64209944F099C44099C49080F430924
:100A6D00A25508D346093145089D470B685007FE2E
:100A7D002D08022E08252B0806230823200B512AAA
:100A8D0007BE480000081DE560B4FF03756006123F
:100A9D000718FC120718FD120718FE120718FF7829
:100AAD00560201EE790AA2D5200314300509B910BA
:100ABD00020404B9080104A2D52006025001042045
:100ACD0002689202B55F005034C0E07F20300319F8
:100ADD007F30A20272067205500F120B0AC202C2BB
:100AED0006C205C2087F30800F300503E9C0E01251
:100AFD000753300503D0E0F9D0E0B55FCC300517D2
:100B0D007F30B9100C1207537F583004077F78805F
:100B1D0003B908031207533002057F2D0207537FD7
:100B2D00202008F87F2B2006F322920280CF7F0031
:100B3D00B4070050052456F8E6FF22286E756C6C3C
:100B4D002900D2011207183001F8C201785F30D5A3
:100B5D000108F60207BE2D50434958120718240309
:100B6D00B405004001E4900B6393120744743A12EC
:0A0B7D000744D203755F04020990DB
:10017500E9D2E7C933E833F892D5EDD2E7CD33ECD0
:0701850033FC5002B2D52249
:10018C00EC30E7100FBF000C0EBE00080DBD0004D4
:10019C000BEB6014A2D5EB13FCED92E7FD2274FF80
:1001AC00FCFDFEFF22E480F8A2D574FF13FC7D80D9
:0301BC00E480EFED
:1001BF00F920E72824F950037907E4F42402FB1807
:1001CF00DBFDE624FB5014E9600DE4F618E604F6B7
:0F01DF00B40A08E4F6D9F57401F60A22C2D52253
:1001EE00ED33EC3392D5FA602AB4FF33EDC2E77BE0
:1001FE00FF60067A027913E4227A02791C20D50474
:10020E007A027917224E614E002B494E46002D4937
:10021E004E4600E47A08F608DAFC7B00740722E802
:10022E00C0E0ECC0E0EDC0E0EEC0E0EFC0E0EA758B
:10023E00F010A4CAABF075F04DA42BFBE435F0FC26
:10024E00EA2410FAEB34C5FBEC34D9FCEDC2E7FF1F
:10025E0075F056A4F42411C5F0F434C58FF0A42A19
:10026E00E5F03BE43CF620E71412051FD0E0FFD08A
:10027E00E0FED0E0FDD0E0FC1200218014F4041268
:10028E00051FD0E0FFD0E0FED0E0FDD0E0FC120371
:10029E00E9D0E0F8E6FAEDD2E7CD33EC332482FB79
:1002AE00E4C3CF33CFCE33CECD33CD33DBF37B07A9
:1002BE0075F00A846004F6081B0AE5F0F6088FF064
:1002CE00740AA4FFACF08EF0740AA42CFEACF050AD
:1002DE00010C8DF0740AA42CFDE435F0F608DBDE7B
:0302EE0074072270
:1002F1000201AAE86480F8E933E83360110460F090
:10030100ED33EC337009E8FCE9FDEAFEEBFF220472
:1003110060DED3EB9FEA9EE99DE8C2E78CF0C2F76D
:1003210095F0400CE8CCF8E9CDF9EACEFAEBCFFB39
:1003310012017585D0F05804700320D5B3E804701C
:10034100075002B2D50201B492D5EC0460F7E4CCB7
:10035100C0E0C398F8603B94186008400DD0E0FB02
:1003610002018CE4FBFAC9FC8028E830E406E4C908
:10037100FBE4CAFCE830E305E4C9CACBFCE8540756
:100381006010F8C3E913F9EA13FAEB13FBEC13FC61
:10039100D8F130F52FC3E49CFCEF9BFFEE9AFEED04
:1003A10099FDD0E0FBEF4E4D4C701222DB030201B0
:1003B100B1EC2CFCEF33FFEE33FEED33FDED30E716
:1003C100EB02018CEF2BFFEE3AFEED39FDD0E0FBA5
:1003D10050130BBB00030201B4ED13FDEE13FEEF4E
:0803E10013FFEC13FC02018C78
:1003E900EC4D6011E8497017ED33EC3304600DE40E
:1003F900FCFFFEFD22E933E8330470F80201AA127A
:10040900017558046009E4CC24815006285009027A
:1004190001B42840030201B1C0E0EB4A7044B9803D
:1004290006D0E0FB0201A0EF4E701CBD8008EBFF77
:10043900EAFEE9FD80EBE98DF0A4FEE5F00204D2C5
:10044900E9CDF9EAFEEBFFEF89F0A4FCE5F0CE89EE
:10045900F0A42EFFE435F0CD89F0A42DFEE435F0AB
:100469008067EF4E7005BD80D780C3EF8BF0A4ACD9
:10047900F0EE8BF0A42CFCE435F0F8EF8AF0A42C14
:10048900E5F038FCE433CB8DF0A42CFCE5F03BF827
:10049900EE8AF0A42CFCE5F038F8E433CF89F0A417
:1004A9002CFCE5F038CF3400CE89F0A42FFFE5F01D
:1004B9003EFEE433C98DF0A42EFEE5F039CD8AF075
:1004C900A42FFFE5F03EFEE43DFD33D0E0FB5007ED
:1004D9000BBB000F0201B4EC2CFCEF33FFEE33FE33
:0604E900ED33FD02018C61
:1004EF003F8000004120000042C80000447A000015
:1004FF00461C400047C35000497424004B18968097
:10050F004CBEBC205A0E1BCA6753C21C749DC5AE8D
:10051F00FB60065407601C232312054DEB54386013
:10052F00091205391205481203E9ECF8EDF9EEFA54
:10053F00EFCB22EB12054880F1543803241C9004B2
:10054F00EFFE93FC0EEE93FD0EEE930ECE93FF2275
:03000000020F11DB
:0C0F1100787FE4F6D8FD758162020F586D
:10055F00BB010689828A83E0225002E722BBFE029A
:09056F00E32289828A83E49322CD
:10057800BB010CE58229F582E5833AF583E0225038
:1005880006E92582F8E622BBFE06E92582F8E22282
:0D059800E58229F582E5833AF583E493229C
:1005A500BB010689828A83F0225002F722BBFE0135
:0205B500F3222F
:1005B700F8BB010DE58229F582E5833AF583E8F07A
:1005C700225006E92582C8F622BBFE05E92582C826
:0205D700F2220E
:1005D90075F008758200EF2FFFEE33FECD33CDCCD9
:1005E90033CCC58233C5829BED9AEC99E58298405C
:1005F9000CF582EE9BFEED9AFDEC99FC0FD5F0D639
:10060900E4CEFBE4CDFAE4CCF9A88222B800C1B962
:100619000059BA002DEC8BF084CFCECDFCE5F0CBA0
:10062900F97818EF2FFFEE33FEED33FDEC33FCEBD9
:1006390033FB10D703994004EB99FB0FD8E5E4F994
:10064900FA227818EF2FFFEE33FEED33FDEC33FC81
:10065900C933C910D7059BE99A4007EC9BFCE99A75
:10066900F90FD8E0E4C9FAE4CCFB2275F010EF2FBA
:10067900FFEE33FEED33FDCC33CCC833C810D707BA
:100689009BEC9AE899400AED9BFDEC9AFCE899F8F5
:0E0699000FD5F0DAE4CDFBE4CCFAE4C8F92288
:0E06A700C3E49FFFE49EFEE49DFDE49CFC2264
:1006B500FAE6FB0808E6F925F0F618E6CA3AF62246
:1006C500D083D082F8E4937012740193700DA3A3C4
:1006D50093F8740193F5828883E4737402936860D8
:0606E500EFA3A3A380DFD8
:1006EB00D083D082F8E4937012740193700DA3A39E
:1006FB0093F8740193F5828883E473740293B5F0D5
:0D070B00067403936860E9A3A3A3A380D83C
:10115900EFB40A07740D121164740A309811A89932
:10116900B8130CC2983098FDA899C298B811F630F6
:0711790099FDC299F59922CE
:100F1D00021250E493A3F8E493A34003F68001F288
:100F2D0008DFF48029E493A3F85407240CC8C333D5
:100F3D00C4540F4420C8834004F456800146F6DFA4
:100F4D00E4800B01020408102040809011FFE47E24
:100F5D00019360BCA3FF543F30E509541FFEE49399
:100F6D00A360010ECF54C025E060A840B8E493A360
:100F7D00FAE493A3F8E493A3C8C582C8CAC583CA8B
:100F8D00F0A3C8C582C8CAC583CADFE9DEE780BE43
:01121A0000D3
:00000001FF
