:0B068900C0F9A4B0999282F88090FFA5
:10064500C182C100C103C181C18401220001210011
:0B066500E5B0F4FF65215FF5228F2156
:010670002267
:10061000D2A9D2ABD28C852523852624E4F525F5F5
:02062000262290
:0E00530000007F017ED87D23DDFEDEFCDFFA9B
:01006100227C
:1005A20075A0807580FF75A0A0E4F58075A0C07568
:0905B20080FF75A0E07580FF22B6
:10063400438E80758904758AFF758CFFD28CD2A98C
:010644002293
:1005FD00538EBF53890F758BB0758D3CC28FD28EC4
:03060D00D2AB224B
:10062200438E0475D72075D6D1438E1043AF04D2C2
:02063200AF22F5
:100066001205A21206341205FD120622300224C21F
:10007600AF7F03120554AC07E412032C7B6F7A1290
:100086007903783F1202851203608E088F09D2AF7A
:100096001200532003067508007509C820020830AF
:1000A6000005C200120610300521C205120665E5DC
:1000B6002230E302B202E52230E202B203E5223048
:1000C600E102B201E52230E002B20430020302028C
:1000D6001075298E752AFF900693E493FBF52BD3B2
:1000E600E5249410E52394274030AE23AF247C27E3
:1000F6007D101203E174892FF58274063EF583E4C0
:1001060093F52CAE23AF247C277D101203E17E03EA
:100116007FE8CFCDCFCECCCE801FC3E5249410E5AB
:10012600239427503CE52494E8E523940340328B3E
:100136002CAE23AF247C037DE81203E174892FF5EE
:100146008274063EF583E493F52DAE23AF247C033B
:100156007DE81203E17E007F64CFCDCFCECCCE808A
:1001660026C3E52494E8E52394035043E5249464E8
:10017600E52394004039900693E493F52CF52DAED3
:1001860023AF247C007D641203E174892FF5827409
:10019600063EF583E493F52EAE23AF247C007D6402
:1001A6001203E17E007F0ACFCDCFCECCCE802EC308
:1001B600E5249464E52394004003020072E5249448
:1001C6000AE52394005003020072900693E493F527
:1001D6002CF52DF52EAE23AF247C007D0A1203E10B
:1001E60074892FF58274063EF583E493F52FAE23CA
:1001F600AF247C007D0A1203E174892DF582740612
:100206003CF583E493F5300200722002030200728B
:100216007531C17532FF7533FF7534FF7535FFAE25
:1002260008AF097C007D641203E174892FF582749E
:10023600063EF583E493547FF536AE08AF097C009D
:100246007D641203E17E007F0ACFCDCFCECCCE12E5
:1002560003E174892FF58274063EF583E493F5373E
:10026600AE08AF097C007D0A1203E174892DF58280
:0C02760074063CF583E493F53802007236
:03000B0002000EE2
:0D000E00C0E00526E52670020525D0E03291
:03001B000205BB20
:1005BB00C0E00527E5276414700AD200C2A9C2ABBC
:0705CB00C28CF527D0E032DD
:030063000204D0C4
:1004D000C0E0C0D075D000C000C007053AE53A645E
:1004E0000A7004F53AD20530044C0539E539640246
:1004F0007059F53975A0C0AF28A80704088002C359
:1005000033D8FCF58075A00020020E75A0E0742998
:100510002528F8E6F58075A00030020E75A0E0747D
:10052000312528F8E6F58075A0000528E52864083F
:100530007019F528801575390075A0C07580FF7594
:10054000A00075A0E07580FF75A000D007D000D096
:04055000D0D0E032F5
:04067100D2A07F0193
:0806750000AE071FEE70F92230
:0F065600D2A1120671C2A17F01120675C2A022A5
:0C067D00C2A1120671D2A17F0102067515
:1005D200C2A0A20692A17F01120675120671C2A0E4
:0705E200D2A17F01020675A2
:0305E90012001EDF
:1005EC00120671A2A19207C2A07F01120675A20782
:0105FC0022DC
:02001E00AD072C
:10002000E4FCECC39408748094805024C2A07F0147
:10003000120675ED30E704D2A18002C2A17F011241
:100040000675D2A0ED25E0FD7F011206750C80D269
:02005000C2A04C
:01005200228B
:10057C00E4FCECC39408748094805017120671ED5F
:10058C0025E0FD30A103430501C2A07F01120675D1
:05059C000C80DFAF053B
:0105A1002237
:02055400AB07F3
:100556001206567F901205E9AF031205E912067DD1
:100566001206567F9112001E1205EC12057CAD078D
:0505760012067DAF0537
:01057B00225D
:100282000203D6EC5D046005E8590470030203CC56
:10029200120397580460F6EC4860F2EC7004FDFE1D
:1002A200FF22C860DB2481C85009C398600250064F
:1002B2000203D39850CAF582E9294B4A7005AB82F2
:1002C2000203C275F0007C1A7880C3EF9BEE9AEDB0
:1002D20099400DC3EF9BFFEE9AFEED99FDE842F0C7
:1002E200DC23ACF0D0E0FFD0E0FED0E0FDAB82201A
:1002F200E7101BEB60BAEC2CFCEF33FFEE33FEEDA4
:1003020033FD0203AEE803F830E705C0F075F000F4
:10031200EF2FFFEE33FEED33FD40B830E7C280AA87
:1003220075F020800E75F010800575F0087D007E56
:10033200007F003392D530D503120436EC334010DF
:10034200EF33FFEE33FEED33FDEC33FCD5F0ED225F
:0E035200E5F0247EA2D513CC92E7CDCEFF229B
:10036000EDD2E7CD33EC3392D524814006E4FFFE95
:10037000FDFC22FCE4CFCECDCC24E0501174FF80F4
:10038000EDC3CC13CCCD13CDCE13CECF13CF047091
:07039000F030D5DE02043657
:10039700E9D2E7C933E833F892D5EDD2E7CD33ECAC
:0703A70033FC5002B2D52225
:1003AE00EC30E7100FBF000C0EBE00080DBD0004B0
:1003BE000BEB6014A2D5EB13FCED92E7FD2274FF5C
:1003CE00FCFDFEFF22E480F8A2D574FF13FC7D80B5
:0303DE00E480EFC9
:03000000020444B3
:0C044400787FE4F6D8FD75813A02048B45
:1003E100BC000BBE0029EF8DF084FFADF022E4CC00
:1003F100F875F008EF2FFFEE33FEEC33FCEE9DECC9
:10040100984005FCEE9DFE0FD5F0E9E4CEFD22ED0E
:10041100F8F5F0EE8420D21CFEADF075F008EF2F58
:10042100FFED33FD4007985006D5F0F222C398FD49
:050431000FD5F0EA22E6
:0E043600C3E49FFFE49EFEE49DFDE49CFC22D7
:10045000020066E493A3F8E493A34003F68001F25C
:1004600008DFF48029E493A3F85407240CC8C333AD
:10047000C4540F4420C8834004F456800146F6DF7C
:10048000E4800B0102040810204080900645E47EC1
:10049000019360BCA3FF543F30E509541FFEE49371
:1004A000A360010ECF54C025E060A840B8E493A338
:1004B000FAE493A3F8E493A3C8C582C8CAC583CA63
:1004C000F0A3C8C582C8CAC583CADFE9DEE780BE1B
:0106550000A4
:00000001FF
