:0B079400C0F9A4B0999282F88090FF99
:1006E500C102012501C100012900014D00012300BE
:0E06F500012100012400012600012200C101A4
:0B078800E5B0F4FF65215FF5238F2131
:010793002243
:0E076A0000007F207E857D57DDFEDEFCDFFA7D
:01077800225E
:0E07790000007F017ED87D23DDFEDEFCDFFA6E
:01078700224F
:1006C40075A0807580FFE4F5A075A0A0F580F5A065
:1006D40075A0C07580FFF5A075A0E07580FFF5A03A
:0106E40022F3
:10075500438E805389F0758ACD758CD4C28DD28C29
:05076500D2A9D2AF2271
:10000E001206C412061E12076A7B327D3B7F171240
:10001E000584120779120755C2AF7F811205D58F5D
:10002E000A7F831205D58F097F851205D58F08D2D9
:10003E00AF120779E5256402700512061E8F0B209C
:10004E00020302022BC202120788E52320E30302F9
:10005E0000F4300002C200AF257E00EF6403704151
:10006E00AD4DFCED6401700FD3E50C9400748094DB
:10007E00804004150C806FED64024C700FD3E50DBB
:10008E009400748094804004150D805AE54D6403ED
:10009E007054D3E50E9400748094804049150E8000
:1000AE0045EF64044E703FAF29FEEF6401700FD32D
:1000BE00E524940074809480400415248028EF6415
:1000CE00024E700FD3E52694007480948040041580
:1000DE00268013E5296403700DD3E5229400748005
:1000EE00948040021522E52320E2030201903000A5
:1000FE0002C200AF257E00EF64037041AD4DFCEDF2
:10010E006401700FC3E50C9417748094805004053D
:10011E000C806FED64024C700FC3E50D943B748040
:10012E0094805004050D805AE54D64037054C3E568
:10013E000E943B748094805049050E8045EF640404
:10014E004E703FAF29FEEF6401700FC3E524941784
:10015E0074809480500405248028EF64024E700F42
:10016E00C3E526943B74809480500405268013E5E5
:10017E00296403700DC3E522943B74809480500271
:10018E000522E52330E13C300002C200AF257E009F
:10019E00EF640170087525047529018026EF64044B
:1001AE004E700DE52964037007752501F52980133E
:1001BE00E5256404700DC3E5299403748094805082
:1001CE00020529E52330E055300002C200AF257E3E
:1001DE0000EF6401701185080C85090D850A0E75F6
:1001EE002503754D018036EF64034E701DE54D6499
:1001FE00037017752501F54DC2AFAB0EAD0DAF0CEB
:10020E00120584D2AF1207798013E5256403700DB1
:10021E00C3E54D9403748094805002054DAF25EFD5
:10022E0064016005EF6402700DE52130E30575256C
:10023E00028003752501AF257E00EF64017048E54D
:10024E000875F00A8490079493F52BE50875F00A6B
:10025E0084E5F093F52CE50975F00A8493F52EE507
:10026E000975F00A84E5F093F52FE50A75F00A8416
:10027E0093F531E50A75F00A84E5F093F532752DA4
:10028E00BF7530BF020392EF64024E702C7533FFC0
:10029E007534FF7535FF7536FF7537FF753AC6E550
:1002AE000B75F00A8490079493F538E50B75F00AF8
:1002BE0084E5F093F539020392AF257E00EF6403D7
:1002CE007077753DBF7540BFE50C75F00A849007D9
:1002DE009493F53BE50C75F00A84E5F093F53CE557
:1002EE000D75F00A8493F53EE50D75F00A84E5F080
:1002FE0093F53FE50E75F00A8493F541E50E75F022
:10030E000A84E5F093F542E50A54017077AD4DFC91
:10031E00ED64017008753BFF753CFF8067ED64026C
:10032E004C7008753EFF753FFF8059ED64034C70AD
:10033E00537541FF7542FF804BEF64044E70457557
:10034E0045BF7548BFE52475F00A8490079493F570
:10035E0043E52475F00A84E5F093F544E52675F03F
:10036E000A8493F546E52675F00A84E5F093F54781
:10037E00E52275F00A8493F549E52275F00A84E5C5
:10038E00F093F54AE50AB5220CE509B52607E5080E
:10039E00B52402D20030010F7580FE75A0807580E5
:1003AE00FEE4F5A00200267580FF75A0807580FF23
:0603BE00E4F5A002002698
:03000B000203C429
:1003C400C0E0C0F0C0D075D000C000C004C005C0FB
:1003D40006C007054C054BE54C640A7004F54CD285
:1003E40002E54B64027073F54B75A0C0AF2AA807F1
:1003F40004088002C333D8FCF58075A000AF257EC5
:1004040000EF6401700E75A0E0742B252AF8E6F560
:100414008075A000EF64024E700E75A0E074332561
:100424002AF8E6F58075A000E5256403700E75A032
:10043400E0743B252AF8E6F58075A000E525640400
:10044400700E75A0E07443252AF8E6F58075A000C7
:10045400052AE52A64087002F52A3000260528E5F5
:100464002870020527AE27FF7C007DC812052FEDFA
:100474004C7002B201E528B48814E527B4130FC206
:10048400008005200008C201752700752800D007E8
:0F049400D006D005D004D000D0D0D0F0D0E032C8
:10072200E4FEEEC3940874809480500FC297EF13D6
:0B07320092A3EFC313FFD2970E80E7E5
:01073D002299
:03073E0025F0FDA6
:10074100C29300C29700D29300120722AF0512078D
:0407510022C293220B
:1005D500E4FDC29300C29700D29300120722E4FF04
:1005E500EFC39408748094805011C297EDC313FD36
:1005F50030A303430580D2970F80E5C29300C297CD
:1006050000D29700C2A300D2A300EDC4540F75F029
:080615000AA4FFED540F2FFFB2
:01061D0022BA
:10058400AC07AA05E4FD7F8E120741EB75F00A84DF
:10059400C454F0FFEB75F00A84EF7F8012073EEA43
:1005A40075F00A84C454F0FFEA75F00A84EF7F8280
:1005B40012073EEC75F00A84C454F0FFEC75F00A9F
:1005C40084EF25F0FD7F841207417D807F8E020732
:0105D40041E5
:040704007F057E00EF
:10070800EF1FAA0670011E4A600FE4FDEDC39408AE
:090718007480948050EA0D80F316
:0107210022B5
:02065300A907F5
:10065500E4FBEBC39408748094805012C294E913B0
:100665009294120704D294E9C313F90B80E47F0531
:050675007E00020708F1
:1006A100E4FBEBC39408748094805014C294ECC3AF
:1006B10013FCD2943094034304801207040B80E2AC
:0206C100AF0484
:0106C3002214
:10067A00C203D2947F0C7E00120708C2947F507E78
:10068A0000120708D2947F0A7E00120708A29492E9
:06069A0003120704A20395
:0106A0002237
:10061E0012067A7FCC1206537F441206537FC87E91
:10062E000012070812067A7FCC1206537FBE1206FE
:10063E00531206A1A9071206A1EFC454F0FFE9C494
:04064E00540F4FFFF7
:010652002285
:030000000204A354
:0C04A300787FE4F6D8FD75814D0204EA74
:10052F00BC000BBE0029EF8DF084FFADF022E4CCB0
:10053F00F875F008EF2FFFEE33FEEC33FCEE9DEC79
:10054F00984005FCEE9DFE0FD5F0E9E4CEFD22EDBF
:10055F00F8F5F0EE8420D21CFEADF075F008EF2F09
:10056F00FFED33FD4007985006D5F0F222C398FDFA
:05057F000FD5F0EA2297
:1004AF0002000EE493A3F8E493A34003F68001F255
:1004BF0008DFF48029E493A3F85407240CC8C3334E
:1004CF00C4540F4420C8834004F456800146F6DF1D
:1004DF00E4800B01020408102040809006E5E47EC2
:1004EF00019360BCA3FF543F30E509541FFEE49312
:1004FF00A360010ECF54C025E060A840B8E493A3D9
:10050F00FAE493A3F8E493A3C8C582C8CAC583CA03
:10051F00F0A3C8C582C8CAC583CADFE9DEE780BEBB
:0107030000F5
:00000001FF
